S0100000636F6465626173652E73726563DE
S11300000C943A000C9457000C9457000C9457002D
S11300100C9457000C9457000C9457000C94570000
S11300200C9457000C9457000C9457000C94DB006C
S11300300C9457000C9457000C9457000C945700E0
S11300400C9457000C9457000C9457000C94A7017F
S11300500C9457000C9457000C9457000C945700C0
S11300600C9457000C9457000C9457000C945700B0
S11300700C94570011241FBECFEFD2E0DEBFCDBFDA
S113008011E0A0E0B1E0E4EFFCE002C005900D92C5
S1130090A036B107D9F721E0A0E6B1E001C01D9276
S11300A0AF36B207E1F70E94E2020C9478060C9492
S11300B00000982F953068F59093E900981739F06F
S11300C07091EC002091ED005091F00003C0242FBA
S11300D0762F50E021FD02C09F5FECCF3091EB0002
S11300E03E7F3093EB003091ED003D7F3093ED0087
S11300F03091EB0031603093EB007093EC0020936F
S1130100ED005093F0002091EE0027FDE5CF80E054
S113011008958F708093E90081E0089508950E9406
S1130120D5000E94D8008091D8008F778093D800A2
S11301308091D80080688093D8008091D8008F7D0A
S11301408093D80084E089BD86E089BD09B400FEAF
S1130150FDCF10926501109261011092630110921B
S1130160620142E060E080E00E9459008091E10079
S11301708E7F8093E1008091E20081608093E200B1
S11301808091E20088608093E2008091E0008E7F9D
S11301908093E0000895E3E6F0E080818E7F808321
S11301A081E0809364010C948F001092E200089522
S11301B01092E10008951F920F920FB60F9211242E
S11301C02F933F934F935F936F937F938F939F935B
S11301D0AF93BF93EF93FF938091E10082FF0BC035
S11301E08091E20082FF07C08091E1008B7F8093C1
S11301F0E1000E948E008091E10080FF18C0809190
S1130200E20080FF14C08091E2008E7F8093E200C0
S11302108091E20080618093E2008091D800806246
S11302208093D80019BC109265010E94A3018091AB
S1130230E10084FF30C08091E20084FF2CC084E0A0
S113024089BD86E089BD09B400FEFDCF8091D80048
S11302508F7D8093D8008091E1008F7E8093E100B0
S11302608091E2008F7E8093E2008091E2008160C1
S11302708093E20080916101882311F084E007C03B
S11302808091E30087FD02C081E001C083E0809398
S113029065010E948B018091E10083FF24C080915D
S11302A0E20083FF20C08091E100877F8093E1001A
S11302B082E080936501109261018091E1008E7F5C
S11302C08093E1008091E2008E7F8093E200809130
S11302D0E20080618093E20042E060E080E00E94FE
S11302E059000E948E00FF91EF91BF91AF919F91B1
S11302F08F917F916F915F914F913F912F910F90CB
S11303000FBE0F901F9018952F988EBD0DB407FE49
S1130310FDCF2F9A0895CF93C2E0C0936E00209131
S1130320040130910501409106015091070160E8F4
S113033074E88EE190E00E94EA02215027BDC4BD1A
S1130340C5BDCF91089515BC1092600108951F9208
S11303500F920FB60F9211242F933F934F935F93F5
S11303606F937F938F939F93AF93BF93CF93EF93A9
S1130370FF93C091E900CF709091EC00892F8170B8
S113038090FD80E8C82B81E08093E9008091E8002B
S113039080FF14C080916001882381F00E945A0379
S11303A090588093F1009093F1008091E80085FDCE
S11303B005C08091E8008E778093E800CF70C093E9
S11303C0E900FF91EF91CF91BF91AF919F918F91F0
S11303D07F916F915F914F913F912F910F900FBE3D
S11303E00F901F901895611102C00C9484018EBD6A
S11303F00DB407FEFDCF0895FF920F931F93CF9383
S1130400DF93F62E072F142F2F988F7161E08064ED
S11304100E94F30161E08FEF810F0E94F301CF2D61
S1130420D02FCE01810F911D8C01C017D10729F067
S113043061E089910E94F301F8CF2F9ADF91CF9167
S11304401F910F91FF90089581E10E948401109201
S11304506E0108950F931F93DC01CB0122E0880FF6
S1130460991FAA1FBB1F2A95D1F71092800021E083
S113047020938100109285001092840000918400E2
S11304801091850020E030E0081719072A073B0780
S113049090F42091840030918500293E3D4F70F303
S11304A0893E2DEF9207A105B10540F3885E9D4F6B
S11304B0A109B109DFCF109281001F910F91089516
S11304C0FF920F931F93CF93DF9300D0CDB7DEB786
S11304D05C9A66E170E080E090E00E942A025898FD
S11304E05C9866E170E080E090E00E942A02589AED
S11304F05C9A66E170E080E090E00E942A020E942B
S1130500240280EE8A8341E0BE016E5F7F4F83E068
S11305100E94FC0166E170E080E090E00E942A0203
S113052008E011E0FF24F394F801808191818E3F6B
S1130530FFEF9F0779F0F8019281998341E0BE01B2
S11305406F5F7F4F0E94FC016AE070E080E090E002
S11305500E942A020C5F1F4FF394F7E1FF12E4CFCD
S11305600F900F90DF91CF911F910F91FF900895FD
S113057084B7877F84BF0FB6F894A89580916000F4
S1130580886180936000109260000FBE90E080E864
S11305900FB6F89480936100909361000FBE0E949F
S11305A0CB008AE080936E0184B1806E84B9249874
S11305B081E58CBD0E9460026DE070E080E090E017
S11305C00C942A020E94B8027894579A5F9A5F9A10
S11305D05F98FDCFA1E21A2EAA1BBB1BFD010DC023
S11305E0AA1FBB1FEE1FFF1FA217B307E407F507DF
S11305F020F0A21BB30BE40BF50B661F771F881FBB
S1130600991F1A9469F760957095809590959B0150
S1130610AC01BD01CF0108958F929F92AF92BF921A
S1130620CF92DF92EF92FF92CF93DF93EC01688138
S113063079818A819B81611571058105910521F478
S113064064E279ED8BE597E02DE133EF41E050E092
S11306500E94220649015A0127EA31E440E050E0B1
S11306600E9409066B017C012CEE34EF4FEF5FEF23
S1130670C501B4010E940906DC01CB018C0D9D1D4E
S1130680AE1DBF1DB7FF03C00197A109B048888301
S11306909983AA83BB839F77DF91CF91FF90EF90DB
S11306A0DF90CF90BF90AF909F908F9008950E945D
S11306B00C03089580E091E00E940C030895A0E0EB
S11306C0B0E08093000190930101A0930201B093E4
S11306D003010895ABE0B0E0E0E7F3E00C944106D9
S11306E06C017B018A01FC0117821682838181FFE0
S11306F0CFC1CE0101963C01F6019381F70193FD30
S1130700859193FF81917F01882309F4BDC18532CE
S113071039F493FD859193FF81917F01853229F40A
S1130720B60190E00E946405E7CF912C212C312C76
S1130730FFE1F315E0F08B3279F038F4803279F090
S11307408332A9F4232D206110C08D3259F08033F7
S113075071F4232D216009C0832D8260382EE32D8E
S1130760E46024C0F32DF86027C0322E29C037FC82
S11307702FC020ED280F2A3098F436FE07C0892DAB
S11307806AE00E940006922E980E1AC0822D6AE03A
S11307900E940006222E280E832D8062382E10C05F
S11307A08E3231F436FC70C1E32DE0643E2E08C075
S11307B08C3621F4F32DF0683F2E02C0883641F4C4
S11307C0F70193FD859193FF81917F018111B0CF52
S11307D0982F9F7D9554933028F40C5F1F4F2FE37F
S11307E029830DC0833631F0833771F0833509F0E6
S11307F059C021C0F801808189830E5F1F4F88246E
S11308008394912C530113C02801F2E04F0E511C24
S1130810F801A080B18036FE03C0692D70E002C0EB
S11308206FEF7FEFC5010E9459054C018201F32D42
S1130830FF773F2E16C0280122E0420E511CF8011A
S1130840A080B18036FE03C0692D70E002C06FEF56
S11308507FEFC5010E944E054C01F32DF0683F2E39
S1130860820133FC1BC0822D90E088169906B0F4F7
S1130870B60180E290E00E9464052A94F4CFF50169
S113088037FC859137FE81915F01B60190E00E94AB
S1130890640521102A9421E0821A9108811491049C
S11308A071F7E8C0843611F0893641F5F80137FE56
S11308B007C060817181828193810C5F1F4F08C0E2
S11308C060817181072E000C880B990B0E5F1F4FFE
S11308D0F32DFF763F2E97FF09C090958095709574
S11308E061957F4F8F4F9F4FF0683F2E2AE030E095
S11308F0A3010E94A005882E861845C0853731F4CF
S1130900232D2F7EB22E2AE030E025C0932D997F2F
S1130910B92E8F36C1F018F4883579F0B5C0803718
S113092019F0883721F0B0C0E92FE061BE2EB4FE83
S11309300DC0FB2DF460BF2E09C034FE0AC0292F60
S11309402660B22E06C028E030E005C020E130E089
S113095002C020E132E0F801B7FE07C06081718176
S1130960828193810C5F1F4F06C06081718180E09A
S113097090E00E5F1F4FA3010E94A005882E8618E9
S1130980FB2DFF773F2E36FE0DC0232D2E7FA22E8A
S1130990891458F434FE0BC032FC09C0832D8E7EBA
S11309A0A82E05C0B82CA32C03C0B82C01C0B92CA8
S11309B0A4FE0FC0FE01E80DF11D8081803321F4F7
S11309C09A2D997EA92E09C0A2FE06C0B394B394B1
S11309D004C08A2D867809F0B394A3FC11C0A0FE4C
S11309E006C0B21488F4280C922C9B180EC0B214C2
S11309F060F4B60180E290E00E946405B394F7CFFE
S1130A00B21418F42B1802C0982C212CA4FE10C088
S1130A10B60180E390E00E946405A2FE17C0A1FC29
S1130A2003C088E790E002C088E590E0B6010CC0FE
S1130A308A2D867859F0A1FE02C08BE201C080E2C3
S1130A40A7FC8DE2B60190E00E946405891438F495
S1130A50B60180E390E00E9464059A94F7CF8A94EB
S1130A60F301E80DF11D8081B60190E00E94640558
S1130A708110F5CF222009F43FCEB60180E290E048
S1130A800E9464052A94F6CFF6018681978102C0FC
S1130A908FEF9FEF2B96E2E10C945D06FC0105902D
S1130AA0615070400110D8F7809590958E0F9F1F6C
S1130AB00895FC016150704001900110D8F78095B1
S1130AC090958E0F9F1F08950F931F93CF93DF93DD
S1130AD0FB01238121FD03C08FEF9FEF2CC022FF78
S1130AE016C046815781248135814217530744F447
S1130AF0A081B1819D012F5F3F4F318320838C936F
S1130B00268137812F5F3F4F3783268314C08B01A3
S1130B10EC01FB010084F185E02D0995892BE1F6B8
S1130B20D80116968D919C911797019617969C93D0
S1130B308E931697CE01DF91CF911F910F91089557
S1130B40FA01AA27283061F1203191F1E8946F93DA
S1130B506E7F6E5F7F4F8F4F9F4FAF4FB1E040D09E
S1130B60B4E03ED0670F781F891F9A1FA11D680F3C
S1130B70791F8A1F911DA11D6A0F711D811D911D71
S1130B80A11D22D009F468943F91062E000C30195F
S1130B90000C000C3019305D3193CEF6CF0108956E
S1130BA0462F4770405D4193B3E00FD0C9F7F6CFAD
S1130BB0462F4F70405D4A3318F0495D31FD405275
S1130BC0419302D0A9F7EACFB4E0A695979587950B
S1130BD077956795BA95C9F70097610571050895EA
S1130BE09B01AC010A2E0694579547953795279596
S1130BF0BA95C9F7620F731F841F951FA01D08952E
S1130C00002480FD060E660F11F08695D1F7802D25
S1130C100895EE27FF27AA27BB2708C0A20FB31FFA
S1130C20E41FF51F220F331F441F551F9695879508
S1130C307795679598F37040A9F7009799F7BD01E8
S1130C40CF010895052E97FB1EF400940E943906E7
S1130C5057FD07D00E94EA0207FC03D04EF40C941F
S1130C60390650954095309521953F4F4F4F5F4F32
S1130C70089590958095709561957F4F8F4F9F4F04
S1130C8008952F923F924F925F926F927F928F922C
S1130C909F92AF92BF92CF92DF92EF92FF920F9307
S1130CA01F93CF93DF93CDB7DEB7CA1BDB0B0FB611
S1130CB0F894DEBF0FBECDBF09942A8839884888CE
S1130CC05F846E847D848C849B84AA84B984C88464
S1130CD0DF80EE80FD800C811B81AA81B981CE0F5B
S1130CE0D11D0FB6F894DEBF0FBECDBFED01089540
S1070CF0F894FFCFA2
S1130CF40100000080BB00000100B0000200D0002D
S1130D040300EC0004000000FEFFFEFF0500600089
S1130D14060060000700600008006000090060002D
S1130D240A0060000B0060000C0060000D00FF006E
S1130D340E00FF000F00000010000000110000006E
S1130D44FEFFFEFF1500000016000000170000005F
S9030000FC
