:100000000C94A9000C94C6000C94C6000C94C60075
:100010000C94C6000C94C6000C94C6000C94C60048
:100020000C94C6000C94C6000C94C6000C940506F3
:100030000C94C6000C94C6000C94C6000C94C60028
:100040000C94C6000C94C6000C94C6000C94B60721
:100050000C94C6000C94C6000C94C6000C94C60008
:100060000C94C6000C94C6000C94C6000C94C600F8
:100070000C94C6001602DB013E01DB013E01BA0111
:1000800091013E017D015B0126034C0055004600B5
:100090004100200041007500640069006F002000ED
:1000A00049006E002000440065006D006F000000F4
:1000B0001A034C0055004600410020004C00690026
:1000C00062007200610072007900000004030904FC
:1000D00009027000020100C03209040000000101A1
:1000E000000009240100011E0001010C240201018D
:1000F00002000100000000092403020101000100C8
:1001000009040100000102000009040101010102CB
:10011000000007240102010100172402010102105E
:1001200005401F00112B0022560044AC0080BB008C
:100130000905810D000101000007250101000000F3
:100140001201100100000008D8042DE50200010290
:10015000000111241FBECFEFD2E0DEBFCDBF11E002
:10016000A0E0B1E0E4E3F7E102C005900D92A83011
:10017000B107D9F721E0A8E0B1E001C01D92A63196
:10018000B207E1F70E94F0060C94980B0C94000063
:10019000292F33272230310519F12330310599F009
:1001A0002130310541F080E090E020E030E0FA01BC
:1001B00031832083089582E190E020E431E0FA0168
:1001C00031832083089599278130910589F0B0F01B
:1001D000029749F7E8E8F0E0849190E09F01E7CFCB
:1001E00080E790E020ED30E0FA013183208308952C
:1001F000E0EBF0E0849190E09F01D9CFECECF0E0EF
:10020000849190E09F01D3CF1F93CF93DF93CDB71D
:10021000DEB7AA970FB6F894DEBF0FBECDBF8091B0
:10022000F10080930E018091F10080930F01809185
:10023000F100809310018091F10080931101809171
:10024000F100809312018091F1008093130180915D
:10025000F100809314018091F100809315010E94B8
:1002600017078091E80083FF09C020910E013091AB
:100270000F01832F90E08A309105C0F08091E80053
:1002800083FF0AC08091E800877F8093E800809117
:10029000EB0080628093EB00AA960FB6F894DEBF65
:1002A0000FBECDBFDF91CF911F910895FC01E65C99
:1002B000FF4F0C9426082111E1CF809110019091FD
:1002C000110199270297D4F68091E800877F8093E7
:1002D000E80080911001809309010E9499058091A6
:1002E0000901811113C18091E30087FD0FC181E0F5
:1002F00080930D010E941207C1CF203809F0BECFB4
:100300008091E800877F8093E800809109018093C5
:10031000F1008091E8008E778093E8000E949905B3
:10032000ADCF2058223008F0A9CF809110019091D4
:1003300011018C3D53E0950709F4B3C0609112019F
:1003400070911301AE014F5F5F4F0E94C800BC0166
:10035000892B09F493CF9091E800977F9093E80060
:1003600089819A810E94D6038091E8008B778093DF
:10037000E80084CF211182CF109110011F77809166
:10038000E3008078812B8093E3008091E800877FF1
:100390008093E8000E9499058091E80080FFFCCFDF
:1003A0008091E30080688093E300111178C082E0BF
:1003B00080930D0163CF222309F45DC0223009F040
:1003C0005DCF80911001811127C0809112018F7043
:1003D0009FEF980F943008F051CF8093E9009091EF
:1003E000EB0090FF19C0333009F492C09091EB00FC
:1003F00090619093EB0021E030E0A90102C0440F2E
:10040000551F8A95E2F74093EA001092EA00809126
:10041000EB0088608093EB001092E9008091E80087
:10042000877F8093E8000E94990528CF203879F1D2
:10043000223809F023CF809112018F70853008F0A7
:100440001DCF8093E9008091EB0085FB882780F920
:100450001092E9009091E800977F9093E8008093D4
:10046000F1001092F1008091E8008E778093E8000F
:100470000E94990503CF80911001813009F0FECED2
:1004800081E0333009F080E080930B01C5CF80918B
:100490000A0190910B019923E9F28260DBCF83E09E
:1004A00087CF83E08A838AE289835FB7F894DE018D
:1004B000139620E03EE041E207C090E0C7968D939E
:1004C0009D932F5F243181F0E32FF0E0409357009C
:1004D000849120FF03C082958F703F5F8F708A30B8
:1004E00060F790E0C096EBCF5FBF8091E800877F18
:1004F0008093E8006AE270E0CE0101960E948E02CD
:100500008091E8008B778093E800B8CE84E0F0CE4D
:100510008091EB0080628093EB007ECF20911401EC
:10052000309115012617370758F06115710509F04C
:1005300046C02091E8002E772093E80020E030E0CC
:10054000FC0180E02115310529F581110FC031C072
:100550008530B9F18091E80083FD35C08091E800D5
:1005600082FD27C08091E80080FDC5C080910D010B
:100570008111EECF82E00895853019F18091E80075
:1005800083FD21C08091E80082FD13C08091E800C6
:1005900080FD1BC080910D018111EECFEBCF8091CA
:1005A0000D01882339F3853061F08091E80083FDE7
:1005B0000AC08091E80082FFF2CF80E008959B019D
:1005C000BFCF83E0089581E008958091F20090E02C
:1005D0008830910508F09FC0DF014D914093F100F4
:1005E000A90141505109BC016F5F7F4F4115510571
:1005F00009F488C06830710509F479C041814093DD
:10060000F100DF011296A90142505109BC016E5F51
:100610007F4F4115510509F475C06830710509F423
:1006200066C042814093F100DF011396A901435057
:100630005109BC016D5F7F4F4115510509F462C03E
:100640006830710509F453C043814093F100DF0124
:100650001496A90144505109BC016C5F7F4F4115AC
:10066000510509F44FC06830710509F440C0448158
:100670004093F100DF011596A90145505109BC01D5
:100680006B5F7F4F41155105E9F16830710579F1D4
:1006900045814093F100DF011696A90146505109AA
:1006A000BC016A5F7F4F4115510561F168307105EA
:1006B000F1F046814093F100DF011796A901475000
:1006C0005109BC01695F7F4F4115510551F16730F8
:1006D000710569F487818093F100389628503109BB
:1006E00081E09091E8009E779093E8002BCFFD0188
:1006F0009A0181E0F6CF9091F20081E0983089F381
:1007000080E0EFCF81E06830710509F080E0FD0105
:1007100020E030E0E6CF41E0089709F040E0842F88
:10072000E0CF91E06830710509F090E0892FEFCFBC
:100730006115710591F48091E8008B778093E80052
:1007400006C080910D018823C1F0853059F1809158
:10075000E80080FFF6CF80E00895FC010AC08530F4
:1007600009F18091E80083FD1FC08091E80082FDBF
:1007700006C080910D018111F2CF82E00895809131
:10078000F200882331F08091F1008193615071096A
:10079000B1F78091E8008B778093E80061157105CF
:1007A00041F7D5CF83E0089581E0089520911401A9
:1007B000309115012617370758F06115710509F0BA
:1007C00046C02091E8002E772093E80020E030E03A
:1007D000AC0180E02115310529F581110FC031C030
:1007E0008530B9F18091E80083FD35C08091E80043
:1007F00082FD27C08091E80080FDBAC080910D0184
:100800008111EECF82E00895853019F18091E800E2
:1008100083FD21C08091E80082FD13C08091E80033
:1008200080FD1BC080910D018111EECFEBCF809137
:100830000D01882339F3853061F08091E80083FD54
:100840000AC08091E80082FFF2CF80E008959B010A
:10085000BFCF83E0089581E008958091F20090E099
:100860008830910508F093C0FA0164916093F1001B
:100870003196B90161507109DC011196611571055C
:1008800009F47DC0189709F46FC0E491E093F1007A
:10089000FA013296B90162507109DC0112966115B4
:1008A000710509F46CC0189709F45EC0E491E093F7
:1008B000F100FA013396B90163507109DC01139616
:1008C0006115710509F45BC0189709F44DC0E491F6
:1008D000E093F100FA013496B90164507109DC012A
:1008E00014966115710509F44AC0189709F43CC0C3
:1008F000E491E093F100FA013596B9016550710970
:10090000DC0115966115710509F439C0189761F17C
:10091000E491E093F100FA013696B901665071094D
:10092000DC0116966115710551F11897E9F0E49113
:10093000E093F100FA013796B90167507109DC01C3
:1009400017966115710549F1179771F4E491E093D9
:10095000F100485F5F4F2850310981E09091E80035
:100960009E779093E80036CFAF019B0181E0F6CFF0
:100970009091F20081E0983089F380E0EFCF81E040
:10098000189709F080E0AF0120E030E0E7CF61E0A8
:10099000089709F060E0862FE1CF91E0189709F001
:1009A00090E0892FF0CF853008F055C08093E900A2
:1009B00041FDA5C091E0980F953009F44CC090938B
:1009C000E9004091EC009091ED003091F00091FD34
:1009D0007CC092E0980F9530F1F19093E90040913E
:1009E000EC009091ED003091F00091FD54C093E047
:1009F000980F953081F19093E9004091EC0090912F
:100A0000ED003091F00091FD2BC0811124C094E0E5
:100A10009093E9004091EC009091ED003091F0004E
:100A200091FF19C02091EB002E7F2093EB002091C5
:100A3000ED002D7F2093ED002091EB0021602093AD
:100A4000EB004093EC009093ED003093F000909118
:100A5000EE0097FF1EC08F708093E90081E008953B
:100A60002091EB002E7F2093EB002091ED002D7F55
:100A70002093ED002091EB0021602093EB00409348
:100A8000EC009093ED003093F0009091EE0097FD14
:100A9000BCCF80E008952091EB002E7F2093EB00E7
:100AA0002091ED002D7F2093ED002091EB0021603F
:100AB0002093EB004093EC009093ED003093F00016
:100AC0009091EE0097FFE5CF92CF2091EB002E7F23
:100AD0002093EB002091ED002D7F2093ED002091DD
:100AE000EB0021602093EB004093EC009093ED002D
:100AF0003093F0009091EE0097FFCBCF6ACF9091AA
:100B0000EB009E7F9093EB009091ED009D7F909382
:100B1000ED009091EB0091609093EB006093EC00FE
:100B20004093ED001092F0009091EE0097FFB1CF4E
:100B300041CF80910E0187FF05C012C080910D0149
:100B4000882349F08091E80080FFF8CF8091E80089
:100B50008E778093E800089580910D018823D9F362
:100B60008091E80082FFF8CF8091E8008B77809336
:100B7000E80008950895809163008E7F809363005C
:100B800081E080930C010E94FF050E940206809183
:100B9000D8008F778093D8008091D80080688093A8
:100BA000D8008091D8008F7D8093D80084E089BDE3
:100BB00086E089BD09B400FEFDCF10920D011092B0
:100BC000090110920B0110920A0142E060E080E0FE
:100BD0000E94D3048091E1008E7F8093E100809198
:100BE000E20081608093E2008091E200886080935F
:100BF000E2008091E0008E7F8093E00008951092E3
:100C0000E20008951092E10008951F920F920FB62E
:100C10000F9211242F933F934F935F936F937F9382
:100C20008F939F93AF93BF93EF93FF938091E100D6
:100C300082FF04C08091E20082FD87C08091E100C4
:100C400080FF04C08091E20080FD6AC08091E100D5
:100C500084FF2CC08091E20084FF28C084E089BD1D
:100C600086E089BD09B400FEFDCF8091D8008F7D5C
:100C70008093D8008091E1008F7E8093E100809185
:100C8000E2008F7E8093E2008091E2008160809399
:100C9000E20080910901811160C08091E30087FD2D
:100CA00060C081E080930D010E94F6068091E10012
:100CB00083FF04C08091E20083FD11C0FF91EF919A
:100CC000BF91AF919F918F917F916F915F914F9164
:100CD0003F912F910F900FBE0F901F90189580910C
:100CE000E100877F8093E10082E080930D01109204
:100CF00009018091E1008E7F8093E1008091E20004
:100D00008E7F8093E2008091E20080618093E20018
:100D100042E060E080E00E94D3040E94BA05CECF9A
:100D20008091E2008E7F8093E2008091E2008061FA
:100D30008093E2008091D80080628093D80019BC33
:100D400010920D010E940E0781CF8091E1008B7FF0
:100D50008093E1000E94BA0571CF84E080930D0179
:100D6000A3CF83E09FCFCF9380910D01882391F093
:100D7000C091E900CF708091EC0080FD0DC080E053
:100D8000C82B1092E9008091E80083FD0DC0CF7060
:100D9000C093E900CF91089580E8C82B1092E90034
:100DA0008091E80083FFF3CF0E940401F0CF84B765
:100DB000877F84BF0FB6F894A89580916000886102
:100DC00080936000109260000FBE90E080E80FB644
:100DD000F89480936100909361000FBE0C94BB0562
:100DE0000E94D70678940E94B306FDCFCF93C2E04D
:100DF000C0936E00209104013091050140910601DD
:100E00005091070160E874E88EE190E00E940408C8
:100E1000215027BDC4BDC5BDCF91089515BC10920A
:100E20000801089546E561E481E00C94D304CF9372
:100E3000DF9300D01F92CDB7DEB780910F018B30CA
:100E400009F475C0B0F1813871F08F3F31F48091B1
:100E50000E018152823008F481C00F900F900F90E4
:100E6000DF91CF91089580910E01823AB1F7809180
:100E70001201813891F780911101813071F78091D1
:100E8000040190910501209106012B839A838983A7
:100E90008091E800877F8093E80063E070E0CE01F6
:100EA00001960E948E028091E8008B778093E80083
:100EB000D4CF813091F680910E01823271F680910B
:100EC0001201813851F680911101813031F6809103
:100ED000E800877F8093E80063E070E0CE01019630
:100EE0000E9498038091E8008E778093E8008B81C0
:100EF0002A81422F50E060E070E0762F652F542F5A
:100F00004427682B89819A01AB01282B2093040187
:100F100030930501409306015093070160E874E89F
:100F20008EE190E00E940408215027BD96CF809169
:100F30000E01813009F091CF8091E800877F809386
:100F4000E8000E94990581E0209110013091110183
:100F5000232B09F480E0809308017FCF8091E80083
:100F6000877F8093E8000E94990577CF1F920F92A8
:100F70000FB60F9211242F933F934F935F936F936C
:100F80007F938F939F93AF93BF93CF93EF93FF93F1
:100F9000C091E900CF708091EC0080FF22C080E812
:100FA000C82B81E08093E9008091E80080FF04C0B5
:100FB00080910801811117C0CF70C093E900FF91A3
:100FC000EF91CF91BF91AF919F918F917F916F9151
:100FD0005F914F913F912F910F900FBE0F901F90F7
:100FE000189580E0DDCF0E947A0890588093F10038
:100FF0009093F1008091E80085FDDECF8091E800BC
:101000008E778093E800D8CFA1E21A2EAA1BBB1BD3
:10101000FD010DC0AA1FBB1FEE1FFF1FA217B307C4
:10102000E407F50720F0A21BB30BE40BF50B661FDA
:10103000771F881F991F1A9469F76095709580959E
:1010400090959B01AC01BD01CF010895EE0FFF1FEC
:101050000590F491E02D09948F929F92AF92BF92E8
:10106000CF92DF92EF92FF92CF93DF93EC016881F2
:1010700079818A819B81611571058105910521F432
:1010800064E279ED8BE597E02DE133EF41E050E04C
:101090000E94420B49015A0127EA31E440E050E046
:1010A0000E94290B6B017C012CEE34EF4FEF5FEFB8
:1010B000C501B4010E94290BDC01CB018C0D9D1DE3
:1010C000AE1DBF1DB7FF03C00197A109B0488883BB
:1010D0009983AA83BB839F77DF91CF91FF90EF9095
:1010E000DF90CF90BF90AF909F908F9008950E9417
:1010F0002C08089580E091E00E942C080895A0E05B
:10110000B0E08093000190930101A0930201B0939D
:1011100003010895ABE0B0E0E0E9F8E00C94610B66
:101120006C017B018A01FC0117821682838181FF99
:10113000CFC1CE0101963C01F6019381F70193FDE9
:10114000859193FF81917F01882309F4BDC1853288
:1011500039F493FD859193FF81917F01853229F4C4
:10116000B60190E00E94840AE7CF912C212C312C0B
:10117000FFE1F315E0F08B3279F038F4803279F04A
:101180008332A9F4232D206110C08D3259F08033B1
:1011900071F4232D216009C0832D8260382EE32D48
:1011A000E46024C0F32DF86027C0322E29C037FC3C
:1011B0002FC020ED280F2A3098F436FE07C0892D65
:1011C0006AE00E94200B922E980E1AC0822D6AE0CF
:1011D0000E94200B222E280E832D8062382E10C0F4
:1011E0008E3231F436FC70C1E32DE0643E2E08C02F
:1011F0008C3621F4F32DF0683F2E02C0883641F47E
:10120000F70193FD859193FF81917F018111B0CF0B
:10121000982F9F7D9554933028F40C5F1F4F2FE338
:1012200029830DC0833631F0833771F0833509F09F
:1012300059C021C0F801808189830E5F1F4F882427
:101240008394912C530113C02801F2E04F0E511CDE
:10125000F801A080B18036FE03C0692D70E002C0A5
:101260006FEF7FEFC5010E94790A4C018201F32DD7
:10127000FF773F2E16C0280122E0420E511CF801D4
:10128000A080B18036FE03C0692D70E002C06FEF10
:101290007FEFC5010E946E0A4C01F32DF0683F2ECE
:1012A000820133FC1BC0822D90E088169906B0F4B1
:1012B000B60180E290E00E94840A2A94F4CFF501FE
:1012C00037FC859137FE81915F01B60190E00E9465
:1012D000840A21102A9421E0821A91088114910431
:1012E00071F7E8C0843611F0893641F5F80137FE10
:1012F00007C060817181828193810C5F1F4F08C09C
:1013000060817181072E000C880B990B0E5F1F4FB7
:10131000F32DFF763F2E97FF09C09095809570952D
:1013200061957F4F8F4F9F4FF0683F2E2AE030E04E
:10133000A3010E94C00A882E861845C0853731F463
:10134000232D2F7EB22E2AE030E025C0932D997FE9
:10135000B92E8F36C1F018F4883579F0B5C08037D2
:1013600019F0883721F0B0C0E92FE061BE2EB4FE3D
:101370000DC0FB2DF460BF2E09C034FE0AC0292F1A
:101380002660B22E06C028E030E005C020E130E043
:1013900002C020E132E0F801B7FE07C06081718130
:1013A000828193810C5F1F4F06C06081718180E054
:1013B00090E00E5F1F4FA3010E94C00A882E86187E
:1013C000FB2DFF773F2E36FE0DC0232D2E7FA22E44
:1013D000891458F434FE0BC032FC09C0832D8E7E74
:1013E000A82E05C0B82CA32C03C0B82C01C0B92C62
:1013F000A4FE0FC0FE01E80DF11D8081803321F4B1
:101400009A2D997EA92E09C0A2FE06C0B394B3946A
:1014100004C08A2D867809F0B394A3FC11C0A0FE05
:1014200006C0B21488F4280C922C9B180EC0B2147B
:1014300060F4B60180E290E00E94840AB394F7CF92
:10144000B21418F42B1802C0982C212CA4FE10C042
:10145000B60180E390E00E94840AA2FE17C0A1FCBE
:1014600003C088E790E002C088E590E0B6010CC0B8
:101470008A2D867859F0A1FE02C08BE201C080E27D
:10148000A7FC8DE2B60190E00E94840A891438F42A
:10149000B60180E390E00E94840A9A94F7CF8A9480
:1014A000F301E80DF11D8081B60190E00E94840AED
:1014B0008110F5CF222009F43FCEB60180E290E002
:1014C0000E94840A2A94F6CFF6018681978102C091
:1014D0008FEF9FEF2B96E2E10C947D0BFC010590C2
:1014E000615070400110D8F7809590958E0F9F1F26
:1014F0000895FC016150704001900110D8F780956B
:1015000090958E0F9F1F08950F931F93CF93DF9396
:10151000FB01238121FD03C08FEF9FEF2CC022FF31
:1015200016C046815781248135814217530744F400
:10153000A081B1819D012F5F3F4F318320838C9328
:10154000268137812F5F3F4F3783268314C08B015D
:10155000EC01FB010084F185E02D0995892BE1F672
:10156000D80116968D919C911797019617969C938A
:101570008E931697CE01DF91CF911F910F91089511
:10158000FA01AA27283061F1203191F1E8946F9394
:101590006E7F6E5F7F4F8F4F9F4FAF4FB1E040D058
:1015A000B4E03ED0670F781F891F9A1FA11D680FF6
:1015B000791F8A1F911DA11D6A0F711D811D911D2B
:1015C000A11D22D009F468943F91062E000C301919
:1015D000000C000C3019305D3193CEF6CF01089528
:1015E000462F4770405D4193B3E00FD0C9F7F6CF67
:1015F000462F4F70405D4A3318F0495D31FD40522F
:10160000419302D0A9F7EACFB4E0A69597958795C4
:1016100077956795BA95C9F70097610571050895A3
:101620009B01AC010A2E069457954795379527954F
:10163000BA95C9F7620F731F841F951FA01D0895E7
:10164000002480FD060E660F11F08695D1F7802DDF
:101650000895EE27FF27AA27BB2708C0A20FB31FB4
:10166000E41FF51F220F331F441F551F96958795C2
:101670007795679598F37040A9F7009799F7BD01A2
:10168000CF010895052E97FB1EF400940E94590B7C
:1016900057FD07D00E94040807FC03D04EF40C94B9
:1016A000590B50954095309521953F4F4F4F5F4FC7
:1016B000089590958095709561957F4F8F4F9F4FBE
:1016C00008952F923F924F925F926F927F928F92E6
:1016D0009F92AF92BF92CF92DF92EF92FF920F93C1
:1016E0001F93CF93DF93CDB7DEB7CA1BDB0B0FB6CB
:1016F000F894DEBF0FBECDBF09942A883988488888
:101700005F846E847D848C849B84AA84B984C8841D
:10171000DF80EE80FD800C811B81AA81B981CE0F14
:10172000D11D0FB6F894DEBF0FBECDBFED010895F9
:04173000F894FFCF5B
:081734000100000080BB000071
:00000001FF
