S0100000636F6465626173652E73726563DE
S11300000C9493000C94B0000C94B0000C94B000C9
S11300100C94B0000C94B0000C94B0000C94B0009C
S11300200C94B0000C94B0000C94B0000C944804F0
S11300300C94EE040C94B0000C94B0000C94B0003A
S11300400C94B0000C94B0000C94B0000C94B0006C
S11300500C94B0000C94B0000C94B0000C94B0005C
S11300600C94B0000C94B0000C94B0000C94B0004C
S11300700C94B00083028A02A5028A02A5029102AE
S11300809602A5029C02A1020E033000300030004B
S11300903000300031000000340338002D004300EC
S11300A0680061006E006E0065006C002000560060
S11300B06F006C00740061006700650020004D0053
S11300C06F006E00690074006F007200000020036E
S11300D056006F006C00740061006700650020002A
S11300E04D006F006E00690074006F007200000024
S11300F004030904000000000000000000000000E8
S113010000000000000000000000000000000000EB
S1130110000000001201000000000040EB032DE588
S113012002000000000011241FBECFEFD2E0DEBFAA
S1130130CDBF21E0A4E0B1E001C01D92A433B20719
S1130140E1F711E0A0E0B1E0EEEAFCE002C00590C6
S11301500D92A430B107D9F70E9436010C945506CC
S11301600C940000292F33272230310559F0233015
S1130170310569F02130310569F180E090E020E03B
S113018030E031C080E290E024EF30E02CC09927C9
S11301908130910569F030F08230910579F0039750
S11301A099F01DC0E0EFF0E0849190E09F011BC046
S11301B0EEECF0E0849190E09F0115C0E8E9F0E0F6
S11301C0849190E09F010FC0E8E8F0E0849190E012
S11301D09F0109C082E190E024E131E004C080E0A5
S11301E090E020E030E0FA0131832083089581E03B
S11301F08093040188E090E040E003C04F5F880FE3
S1130200991F80349105D0F34295407F426061E8A4
S113021081E00E94660388E090E040E003C04F5F05
S1130220880F991F80349105D0F34295407F426036
S113023060E882E00E9466030895809104018823A7
S1130240A1F081E08093E9008091E80080FF0DC077
S113025040E050E064E270E085E091E00E94B40286
S1130260E8EEF0E080818E778083089584B7877FFD
S113027084BF0FB6F894A89580916000886180933C
S11302806000109260000FBE90E080E80FB6F89412
S113029080936100909361000FBE0E9437047894AC
S11302A0C12CD12C76018FEFC81AD80AE80AF80AB3
S11302B0C0922501D0922601E0922701F0922801F4
S11302C0C0E0D0E014C00E94EB05682F70E080E02D
S11302D090E00E945A05FE01EE0FFF1FEE0FFF1F74
S11302E0EB5FFE4F60837183828393832196C830D2
S11302F0D1054CF30E941D010E945705D4CF809173
S11303002C01803889F08238F1F4809130018F70AB
S11303108530C8F4E9EEF0E080839091EB0095FB22
S1130320992790F9108201C090E0E8EEF0E0808116
S1130330877F8083A1EFB0E09C931C9280818E77AD
S113034080830E949A03089580912C018F718230DA
S1130350C1F580912E0181112BC0809130018F70E5
S11303609FEF980F943068F58093E9009091EB002B
S113037090FF1EC090912D01933031F4EBEEF0E02C
S113038080818062808314C0EBEEF0E09081906104
S1130390908321E030E0A90102C0440F551F8A95E3
S11303A0E2F7AAEEB0E04C931C92808188608083CF
S11303B01092E900E8EEF0E08081877F80830E945C
S11303C09A030895CF93C0912E01CF77E3EEF0E026
S11303D0808180788C2B8083E8EEF0E08081877FB9
S11303E080830E949A038091E80080FFFCCFE3EEB3
S11303F0F0E0808180688083CC2311F083E001C029
S113040082E080932B01CF910895E8EEF0E08081A3
S1130410877F8083809129018093F10080818E778A
S113042080830E949A0308950F931F93CF93DF93C1
S113043000D0CDB7DEB7ECE2F1E064817581AE01A6
S11304404F5F5F4F828193810E94B200009779F0E1
S113045008EE10E0F8012081277F2083BC01898108
S11304609A810E94FF02F80180818B7780830F902C
S11304700F90DF91CF911F910F91089580912E01DC
S113048090912F0199270297F4F4E8EEF0E080812F
S1130490877F808380912E01809329010E949A0393
S11304A080912901882321F084E080932B0109C0E5
S11304B08091E300882314F484E001C081E08093F8
S11304C02B010E94F700089580E0ECE2F1E005C002
S11304D09091F10090838F5F31968830C8F30E9429
S11304E0F5038091E80083FF30C0ECE2F1E0208165
S11304F0E1818E2F90E08A30910538F5FC01E65CAD
S1130500FF4F0C949705203811F02238F1F40E9423
S11305107F011BC0222311F02230B9F40E94A401F0
S113052014C0211112C00E94E2010FC020582230D1
S113053060F40E94140209C0203839F40E940502B4
S113054004C0211102C00E943E028091E80083FF92
S11305500AC0E8EEF0E08081877F8083EBEEF0E074
S11305608081806280830895CF92DF92EF92FF9220
S11305700F931F93CF93DF938C01EB016A010E94C9
S1130580BB03811133C0C114D10439F0F601808159
S11305909181C81BD90B080F191FE12CF12C23C022
S11305A08091E80085FD16C0E8EEF0E090819E772A
S11305B09083C114D10449F0F60180819181E80E41
S11305C0F91EF182E08285E011C00E94BB038823FA
S11305D051F00CC0F80181918F018093F1002197B3
S11305E0FFEFEF1AFF0A2097D9F680E0DF91CF9151
S11305F01F910F91FF90EF90DF90CF90089520917D
S11306003201309133012617370758F0611571050F
S113061039F4E8EEF0E020812E7720839B0101C0BD
S11306209B01E82FF92F40E02FC080912B018823F4
S113063009F440C0853009F43FC08091E80083FD8F
S11306403DC08091E80082FD2FC08091E80080FFCA
S11306501BC08091F20090E007C044914093F100E8
S113066031962150310901962115310519F0803454
S1130670910598F341E08034910509F040E0A8EE3B
S1130680B0E08C918E778C932115310571F6411170
S1130690CCCF0AC080912B01882391F0853091F052
S11306A08091E80083FD10C08091E80082FFF2CFC2
S11306B080E0089582E0089583E0089581E008953C
S11306C082E0089583E0089581E00895982F29C079
S11306D0292F2F702093E900981739F07091EC00BE
S11306E02091ED005091F00003C0242F762F50E0AC
S11306F021FF16C0EBEEF0E030813E7F3083ADEE9B
S1130700B0E03C913D7F3C93308131603083709305
S1130710EC002C935093F0002091EE00222344F43B
S11307209F5F9530A8F28F708093E90081E008956F
S113073080E0089580912C0188239CF404C080916A
S11307402B018823B9F08091E80082FFF8CFE8EE0E
S1130750F0E080818B778083089580912B0188233A
S113076049F08091E80080FFF8CFE8EEF0E0808166
S11307708E77808308952091E4003091E50044E66B
S113078002C09C01452F8091EC00982F917080FD50
S113079090E8903829F48091E80080FF05C01BC0E0
S11307A08091E80082FD19C080912B018823B9F063
S11307B08530B9F08091EB0085FD15C08091E4008F
S11307C09091E50028173907F1F25FEF540F4111BA
S11307D0D8CF84E0089580E0089580E0089582E011
S11307E0089583E0089581E00895089510922B01FF
S11307F01092290188E090E040E003C04F5F880F29
S1130800991F80349105D0F34295407F426060E0A7
S113081080E00E946603E1EEF0E080818E7F8083B9
S1130820E2EEF0E080818160808380818860808353
S1130830E0EEF0E080818E7F808308950E94420480
S11308400E944504E8EDF0E080818F778083808109
S11308508068808380818F7D808384E089BD86E089
S113086089BD09B400FEFDCF0E94F6030895E3E6B6
S1130870F0E080818E7F808381E080932A010E9452
S11308801E0408951092E20008951092E100089564
S11308901F920F920FB60F9211242F933F934F93F1
S11308A05F936F937F938F939F93AF93BF93EF93D4
S11308B0FF938091E10080FF17C08091E20080FFE8
S11308C013C0E2EEF0E080818E7F808380818061BE
S11308D08083E8EDF0E080818062808319BC85E04C
S11308E080932B010E94F5038091E10084FF30C0C6
S11308F08091E20084FF2CC084E089BD86E089BD3C
S113090009B400FEFDCFE8EDF0E080818F7D8083A7
S1130910E1EEF0E080818F7E8083E2EEF0E0808182
S11309208F7E8083808181608083809129018823E8
S113093021F084E080932B0109C08091E300882397
S113094014F483E001C081E080932B010E94F5033D
S11309508091E10083FF31C08091E20083FF2DC0CC
S1130960E1EEF0E08081877F808382E080932B0139
S11309701092290180818E7F8083E2EEF0E08081F5
S11309808E7F808380818061808388E090E040E076
S113099003C04F5F880F991F80349105D0F34295AF
S11309A0407F426060E080E00E946603E0EFF0E098
S11309B08081886080830E94F503FF91EF91BF914D
S11309C0AF919F918F917F916F915F914F913F91E3
S11309D02F910F900FBE0F901F9018951F920F929A
S11309E00FB60F921124EF92FF921F932F933F9310
S11309F04F935F936F937F938F939F93AF93BF9323
S1130A00CF93DF93EF93FF93C091E900CF70809170
S1130A10EC00982F917080FD90E8192F1C2B0F2E5D
S1130A20F9EEEF2EF12CF02DF7011082C0EFD0E09B
S1130A308881877F888378940E946402F7011082FA
S1130A40888188608883C12FCF70C083FF91EF9124
S1130A50DF91CF91BF91AF919F918F917F916F91D2
S1130A605F914F913F912F911F91FF90EF900F90C5
S1130A700FBE0F901F901895CF9380912B01882360
S1130A80A1F0C091E900CF708091EC00982F917093
S1130A9080FD90E8C92B1092E9008091E80083FD65
S1130AA00E946402CF70C093E900CF9108950E9420
S1130AB03C050895E89409C097FB3EF49095809511
S1130AC0709561957F4F8F4F9F4F9923A9F0F92F10
S1130AD096E9BB279395F695879577956795B7958E
S1130AE0F111F8CFFAF4BB0F11F460FF1BC06F5F74
S1130AF07F4F8F4F9F4F16C0882311F096E911C086
S1130B00772321F09EE8872F762F05C0662371F0A6
S1130B1096E8862F70E060E02AF09A95660F771FBA
S1130B20881FDAF7880F9695879597F90895EE0F41
S1130B30FF1F0590F491E02D09948F929F92AF923C
S1130B40BF92CF92DF92EF92FF92CF93DF93EC01AB
S1130B50688179818A819B8161157105810591057F
S1130B6021F464E279ED8BE597E02DE133EF41E088
S1130B7050E00E94140649015A0127EA31E440E09A
S1130B8050E00E94FB056B017C012CEE34EF4FEF2B
S1130B905FEFC501B4010E94FB05DC01CB018C0DA4
S1130BA09D1DAE1DBF1DB7FF03C00197A109B0482D
S1130BB088839983AA83BB839F77DF91CF91FF902A
S1130BC0EF90DF90CF90BF90AF909F908F9008955B
S1130BD00E949D05089580E091E00E949D0508957E
S1130BE0A0E0B0E08093000190930101A093020182
S1130BF0B09303010895EE27FF27AA27BB2708C057
S1130C00A20FB31FE41FF51F220F331F441F551FEC
S1130C10969587957795679598F37040A9F700970F
S1130C2099F7BD01CF010895052E97FB1EF400949A
S1130C300E942B0657FD07D00E94330607FC03D001
S1130C404EF40C942B0650954095309521953F4FCA
S1130C504F4F5F4F089590958095709561957F4FA4
S1130C608F4F9F4F0895A1E21A2EAA1BBB1BFD01B3
S1130C700DC0AA1FBB1FEE1FFF1FA217B307E40777
S1130C80F50720F0A21BB30BE40BF50B661F771FCF
S1130C90881F991F1A9469F76095709580959095AF
S1110CA09B01AC01BD01CF010895F894FFCF74
S1070CAE010000003D
S9030000FC
