S0100000636F6465626173652E73726563DE
S11300000C943A000C9457000C9457000C9457002D
S11300100C9457000C9457000C9457000C94570000
S11300200C9457000C9457000C9457000C945900EE
S11300300C947D000C9457000C9457000C945700BA
S11300400C9457000C9457000C9457000C945700D0
S11300500C9457000C9457000C9457000C945700C0
S11300600C9457000C9457000C9457000C945700B0
S11300700C94570011241FBECFEFD2E0DEBFCDBFDA
S113008011E0A0E0B1E0ECEAF1E002C005900D92CD
S1130090A030B107D9F721E0A0E0B1E001C01D9282
S11300A0A530B207E1F70E94C8000C94D4000C9468
S11300B000001F920F920FB60F9211248F93EF93AB
S11300C0FF938091E10083FF10C0E1EEF0E08081B6
S11300D0877F808310920101109202011092030124
S11300E01092040183E080930001FF91EF918F91BE
S11300F00F900FBE0F901F9018951F920F920FB67E
S11301000F9211248F939F93AF93BF93EF93FF9319
S11301108091E10082FF18C0E1EEF0E080818B7FE6
S113012080838091010190910201A0910301B0911B
S113013004010196A11DB11D809301019093020158
S1130140A0930301B0930401FF91EF91BF91AF918C
S11301509F918F910F900FBE0F901F90189584B1AF
S1130160876084B984B1877F84B988E58CBD81E0D8
S11301708DBD08958EBD0DB407FEFDCF8EB50895D7
S113018085B1877F85B9089585B1886085B908955B
S11301900E94AF000E94C00085E50E94BA000E9440
S10F01A0C40080E28BB9F6CFF894FFCFC6
S9030000FC
