S0100000636F6465626173652E73726563DE
S11300000C943A000C9444000C9444000C94440066
S11300100C9444000C9444000C9444000C9444004C
S11300200C9444000C9444000C9444000C9444003C
S11300300C9444000C9444000C9444000C9444002C
S11300400C9444000C9444000C9444000C9444001C
S11300500C9444000C9444000C9444000C9444000C
S11300600C9444000C9444000C9444000C944400FC
S11300700C94440011241FBECFEFD2E0DEBFCDBFED
S11300800E945F000C9469000C94000084B18760A6
S113009084B984B1877F84B988E58CBD81E08DBD46
S11300A008958EBD0DB407FEFDCF8EB5089585B1BC
S11300B0877F85B9089585B1886085B908950E94C0
S11300C046000E94570085E50E9451000E945B0093
S10900D0F8CFF894FFCF05
S9030000FC
