S0100000636F6465626173652E73726563DE
S11300000C94BB000C94D8000C94D8000C94D80029
S11300100C94D8000C94D8000C94D8000C94D800FC
S11300200C94D8000C94D8000C94D8000C94490576
S11300300C94D8000C94D8000C94D8000C94D800DC
S11300400C94D8000C94D8000C94D8000C94570746
S11300500C94D8000C94D8000C94D8000C94D800BC
S11300600C94D8000C94D8000C94D8000C94D800AC
S11300700C94D800BE01E501DD02E501DD02310288
S11300805402DD02AB02BA0216034300650072009B
S113009065006C006F006700200058003800000005
S11300A0100343006500720065006C006F00670078
S11300B00000040309040902AD00040100C0320970
S11300C0040000000101000009240100011E0001D8
S11300D0010C2402010102000100000000092403B4
S11300E002010100010009040100000102000009ED
S11300F004010101010200000724010201010017AB
S113010024020101021005401F00112B0022560099
S113011044AC0080BB000905810D0001010000070B
S1130120250101000000080B02020202010009047B
S11301300200010202010005240010010424020649
S11301400524060203070583030800FF09040300CE
S1130150020A0000000705030210000507058202D9
S11301601000051201100100000008D8042DE5025A
S1130170000102DC010011241FBECFEFD2E0DEBF7C
S1130180CDBF11E0A0E0B1E0EAE8F6E102C00590DD
S11301900D92A433B107D9F721E0A4E3B1E001C083
S11301A01D92A234B207E1F70E9448060C94430B57
S11301B00C940000292F33272230310559F02330C5
S11301C0310569F021303105E9F482E190E023E65C
S11301D031E01CC08DEA90E026EB30E017C099278F
S11301E08130910549F028F0029761F4E8E8F0E0E5
S11301F005C0E2EBF0E002C0E0EAF0E0849190E0B8
S11302009F0104C080E090E020E030E0FA013183F7
S113021020830895CF93DF93EC01FC0170968BE06B
S1130220DF011D928A95E9F782E08C83898783E058
S11302308E8761E0CE0101960E946C04882371F0E0
S113024061E0CE0106960E946C04882339F061E0D7
S1130250CE010B96DF91CF910C946C0480E0DF917A
S1130260CF910895DB01209139012430D1F4FC01B0
S11302704489558966897789452B462B472B89F014
S113028081818F708093E900FD0101900020E9F7DE
S11302903197BF016A1B7B0B40E050E0CD010C9409
S11302A0F50282E0089520913901243029F5FC01FA
S11302B04489558966897789452B462B472BE1F07C
S11302C081818F708093E9008091F200882391F0FE
S11302D09091E8008091E8008E778093E80095FD86
S11302E009C00E94C904811108C08091E8008E777A
S11302F08093E80080E0089582E008952091390118
S1130300243091F4FC014489558966897789452B09
S1130310462B472B49F021812F702093E90020912F
S1130320E80020FD0C94530108951F93CF93DF93AD
S1130330CDB7DEB7AA970FB6F894DEBF0FBECDBF18
S1130340EAE3F1E08091F100819321E0E234F207E5
S1130350C9F70E94B4068091E80083FF2EC1809102
S11303603A0190913B01492F50E04A30510508F081
S113037024C1FA01E65CFF4F0C94C507803821F0D4
S1130380823809F01AC108C0809136019091370172
S1130390992389F082600FC080913E018F7085306F
S11303A008F00BC18093E9008091EB0085FB88275E
S11303B080F91092E9009091E800977F9093E8000B
S11303C08093F1001092F100D1C0282F2D7F09F005
S11303D0F4C0882319F0823061F0EFC080913C01B1
S11303E0813009F0EAC0933009F080E0809337014E
S11303F02EC080913C0181112AC080913E018F70F2
S11304002FEF280F243008F0D8C08093E900209102
S1130410EB0020FF1CC0933021F48091EB0080623C
S113042014C09091EB0090619093EB0021E030E0D8
S1130430A90102C0440F551F8A95E2F74093EA00D0
S11304401092EA008091EB0088608093EB00109298
S1130450E9008091E800877F8093E8000E94AA0465
S1130460ACC08111AAC010913C011F778091E300B8
S11304708078812B8093E3008091E800877F8093CC
S1130480E8000E94AA048091E80080FFFCCF8091DC
S1130490E30080688093E300111102C082E001C090
S11304A083E08093390189C08058823008F085C088
S11304B080913C0190913D018C3D53E0950779F585
S11304C083E08A838AE289834FB7F894DE01139626
S11304D020E03EE051E2E32FF0E050935700E49136
S11304E020FF03C0E295EF703F5FEF708E2F90E026
S11304F0EA3010F0C79601C0C0968D939D932F5F8C
S1130500243149F74FBF8091E800877F8093E8004A
S11305106AE270E0CE0101960E94420316C0609127
S11305203E0170913F01AE014F5F5F4F0E94DA00C0
S1130530BC01892B09F441C09091E800977F909306
S1130540E80089819A810E94D9038091E8008B7721
S11305508093E80032C0803881F58091E800877F7D
S11305608093E800809135018093F1008091E80048
S11305708E7772CF811121C080913C0190913D0111
S113058099270297D4F48091E800877F8093E8004C
S113059080913C01809335010E94AA048091350129
S11305A0811106C08091E30087FD02C081E001C093
S11305B084E0809339010E94AF068091E80083FFB4
S11305C00AC08091E800877F8093E8008091EB0067
S11305D080628093EB00AA960FB6F894DEBF0FBE3C
S11305E0CDBFDF91CF911F910895CF92DF92EF920B
S11305F0FF920F931F93CF93DF93EC018B017A014A
S11306000E94C904811135C0E114F10439F0F701E5
S113061080819181081B190BC80FD91FC12CD12CC3
S11306200115110529F18091E80085FD18C080911C
S1130630E8008E778093E8000E94F205E114F1044B
S113064049F0F70180819181C80ED91ED182C08200
S113065085E00FC00E94C904882311F30AC0899160
S11306608093F10001501109FFEFCF1ADF0AD8CFB0
S113067080E0DF91CF911F910F91FF90EF90DF9079
S1130680CF900895209140013091410126173707FA
S113069048F06115710539F42091E8002E77209314
S11306A0E80001C0B901FC0120E06115710561F1A8
S11306B0809139018823D9F18530D9F18091E800FE
S11306C083FD39C08091E80082FD2BC08091E80051
S11306D080FFEBCF8091F20090E06115710551F03D
S11306E08830910538F421912093F100615071090B
S11306F00196F3CF21E0089709F020E08091E8000B
S11307008E778093E800D1CF2111D2CF0AC0809197
S11307103901882361F0853061F08091E80083FD20
S11307200AC08091E80082FFF2CF80E0089582E061
S1130730089583E0089581E008956115710529F411
S11307402091E8002B772093E800FC0161157105E6
S113075021F180913901882341F1853041F1809163
S1130760E80083FD20C08091E80082FFEFCF8091F4
S1130770F200882331F08091F10081936150710976
S1130780B1F78091E8008B778093E800DFCF809108
S11307903901882351F0853051F08091E80080FFC1
S11307A0F6CF80E0089581E0089582E0089583E023
S11307B0089520914001309141012617370748F0F0
S11307C06115710539F42091E8002E772093E80033
S11307D001C0B901FC0120E06115710579F1809136
S11307E03901882309F43DC0853009F43CC0809167
S11307F0E80083FD3AC08091E80082FD2CC080911E
S1130800E80080FFE9CF8091F20090E06115710566
S113081059F08830910540F424912093F1003196E9
S1130820615071090196F2CF21E0089709F020E0A8
S11308308091E8008E778093E800CECF2111CFCF4E
S11308400AC080913901882361F0853061F080917C
S1130850E80083FD0AC08091E80082FFF2CF80E0C7
S1130860089582E0089583E0089581E00895982F23
S1130870953068F59093E900981739F07091EC0081
S11308802091ED005091F00003C0242F762F50E00A
S113089021FD02C09F5FECCF3091EB003E7F30938F
S11308A0EB003091ED003D7F3093ED003091EB0093
S11308B031603093EB007093EC002093ED00509383
S11308C0F0002091EE0027FDE5CF80E008958F70C1
S11308D08093E90081E008950F931F93CF93DF93F2
S11308E0062FEC0110E0101779F19881911103C0E3
S11308F01F5F2596F8CF2C81A981BA816B81892F3E
S11309008F70853010F080E020C0223010F442E077
S113091001C046E0E8E0F0E020E0EA17FB0720F43D
S11309202F5FEE0FFF1FF9CF2295207F422B629598
S1130930660F660F607C991F9927991F692B0E9487
S113094037048111D5CFDFCF81E0DF91CF911F91A3
S11309500F91089580913A0187FF11C08091E800BA
S113096082FD05C0809139018111F8CF11C08091B9
S1130970E8008B770BC080913901882349F080917E
S1130980E80080FFF8CF8091E8008E778093E8003C
S113099008952091E4003091E50095E64091EC0043
S11309A0842F817040FF23C08091E80080FD1DC02A
S11309B080913901882399F0853099F08091EB007A
S11309C085FD11C04091E4005091E50024173507DE
S11309D029F3915011F09A01E1CF84E0089582E067
S11309E0089583E0089581E0089580E0089540919A
S11309F0E80042FFDDCF089508950E9443050E9458
S1130A0046058091D8008F778093D8008091D800D4
S1130A1080688093D8008091D8008F7D8093D8001F
S1130A2084E089BD86E089BD09B400FEFDCF109243
S1130A30390110923501109237011092360142E0CB
S1130A4060E080E00E9437048091E1008E7F809313
S1130A50E1008091E20081608093E2008091E200F5
S1130A6088608093E2008091E0008E7F8093E000B4
S1130A700895E3E6F0E080818E7F808381E08093B7
S1130A8038010C94FD041092E20008951092E100E4
S1130A9008951F920F920FB60F9211242F933F9334
S1130AA04F935F936F937F938F939F93AF93BF9372
S1130AB0EF93FF938091E10082FF0BC08091E200ED
S1130AC082FF07C08091E1008B7F8093E1000E9448
S1130AD0FC048091E10080FF18C08091E20080FF57
S1130AE014C08091E2008E7F8093E2008091E20046
S1130AF080618093E2008091D80080628093D80066
S1130B0019BC109239010E94AB068091E10084FF68
S1130B1030C08091E20084FF2CC084E089BD86E06F
S1130B2089BD09B400FEFDCF8091D8008F7D8093EC
S1130B30D8008091E1008F7E8093E1008091E200F3
S1130B408F7E8093E2008091E20081608093E200D6
S1130B5080913501882311F084E007C08091E3007F
S1130B6087FD02C081E001C083E0809339010E94C7
S1130B7093068091E10083FF24C08091E20083FF0B
S1130B8020C08091E100877F8093E10082E0809320
S1130B903901109235018091E1008E7F8093E1004C
S1130BA08091E2008E7F8093E2008091E200806178
S1130BB08093E20042E060E080E00E9437040E94FB
S1130BC0FC04FF91EF91BF91AF919F918F917F9121
S1130BD06F915F914F913F912F910F900FBE0F90A6
S1130BE01F901895CF93809139018823A1F0C0916B
S1130BF0E900CF709091EC00892F817090FD80E81E
S1130C00C82B1092E9008091E80083FD0E949501B1
S1130C10CF70C093E900CF91089584B7877F84BFD4
S1130C200FB6F894A8958091600088618093600065
S1130C30109260000FBE90E820E00FB6F8949093F5
S1130C406100209361000FBE84B7877F84BF0FB615
S1130C50F894A89580916000886180936000109258
S1130C6060000FBE0FB6F89490936100209361006A
S1130C700FBE0E94390578943F9A809139018430DF
S1130C8011F4479A01C0479888E091E00C940A0156
S1130C900E940D06E12CF12C00E010E0D0E0C0E051
S1130CA0C12CD12C0E94F20588E091E00E947E01C3
S1130CB05F9A9701A8016D2F7C2FC601203A364810
S1130CC0414051056105710581059105F1F0ECF094
S1130CD080913901843039F4479A63E271E088E005
S1130CE091E00E9432019701A8016D2F7C2FC6016B
S1130CF0205A364841405109610971098109910915
S1130D0079018A01D62FC72F6C019701A8016D2F95
S1130D107C2FC601A1E00E94CB0779018A01D62F5E
S1130D20C72F6C01BFCFCF93C2E0C0936E00209158
S1130D30040130910501409106015091070160E8DA
S1130D4074E88EE190E00E94A307215027BDC4BD42
S1130D50C5BDCF91089515BC10923401089546E5A0
S1130D6061E481E00C943704CF93DF9300D01F92A9
S1130D70CDB7DEB780913B018B3051F018F4813050
S1130D8061F18FC0813809F467C08F3FC1F089C019
S1130D9080913A01813009F084C08091E800877F16
S1130DA08093E8000E94AA0481E020913C013091E4
S1130DB03D01232B09F480E08093340172C08091BB
S1130DC03A018152823008F06CC08091E800877F3C
S1130DD08093E8000E94AA0464C080913A018232A0
S1130DE009F05FC080913E01813809F05AC08091BA
S1130DF03D01813009F055C08091E800877F8093E0
S1130E00E80063E070E0CE0101960E949D038091AA
S1130E10E8008E778093E8008B812A81422F50E08E
S1130E2060E070E0762F652F542F4427682B89816A
S1130E309A01AB01282B20930401309305014093C0
S1130E4006015093070160E874E88EE190E00E9487
S1130E50A307215027BD25C080913A01823A09F5A4
S1130E6080913E018138E9F480913D018130C9F4DB
S1130E708091040190910501209106012B839A83AE
S1130E8089838091E800877F8093E80063E070E0C5
S1130E90CE0101960E9442038091E8008B778093F3
S1130EA0E8000F900F900F90DF91CF9108951F925B
S1130EB00F920FB60F9211242F933F934F935F938A
S1130EC06F937F938F939F93AF93BF93CF93EF933E
S1130ED0FF93C091E900CF709091EC00892F81704D
S1130EE090FD80E8C82B81E08093E9008091E800C0
S1130EF080FF14C080913401882381F00E9425086A
S1130F0090588093F1009093F1008091E80085FD62
S1130F1005C08091E8008E778093E800CF70C0937D
S1130F20E900FF91EF91CF91BF91AF919F918F9184
S1130F307F916F915F914F913F912F910F900FBED1
S1130F400F901F901895A1E21A2EAA1BBB1BFD013E
S1130F500DC0AA1FBB1FEE1FFF1FA217B307E40794
S1130F60F50720F0A21BB30BE40BF50B661F771FEC
S1130F70881F991F1A9469F76095709580959095CC
S1130F809B01AC01BD01CF010895EE0FFF1F059039
S1130F90F491E02D09940024A7FD00942A0F301D3C
S1130FA0401D501D601D701D801D901D08958F9261
S1130FB09F92AF92BF92CF92DF92EF92FF92CF9324
S1130FC0DF93EC01688179818A819B8161157105C8
S1130FD08105910521F464E279ED8BE597E02DE13B
S1130FE033EF41E050E00E94ED0A49015A0127EA3B
S1130FF031E440E050E00E94D40A6B017C012CEE05
S113100034EF4FEF5FEFC501B4010E94D40ADC0155
S1131010CB018C0D9D1DAE1DBF1DB7FF03C00197F5
S1131020A109B04888839983AA83BB839F77DF9102
S1131030CF91FF90EF90DF90CF90BF90AF909F90B3
S11310408F9008950E94D707089580E091E00E9450
S1131050D7070895A0E0B0E08093000190930101C8
S1131060A0930201B09303010895ABE0B0E0EBE379
S1131070F8E00C940C0B6C017B018A01FC011782D3
S11310801682838181FFCFC1CE0101963C01F60116
S11310909381F70193FD859193FF81917F018823CB
S11310A009F4BDC1853239F493FD859193FF819193
S11310B07F01853229F4B60190E00E942F0AE7CF20
S11310C0912C212C312CFFE1F315E0F08B3279F0D7
S11310D038F4803279F08332A9F4232D206110C0D2
S11310E08D3259F0803371F4232D216009C0832D92
S11310F08260382EE32DE46024C0F32DF86027C00D
S1131100322E29C037FC2FC020ED280F2A3098F446
S113111036FE07C0892D6AE00E94CB0A922E980EF3
S11311201AC0822D6AE00E94CB0A222E280E832D3B
S11311308062382E10C08E3231F436FC70C1E32D3B
S1131140E0643E2E08C08C3621F4F32DF0683F2E67
S113115002C0883641F4F70193FD859193FF819194
S11311607F018111B0CF982F9F7D9554933028F43F
S11311700C5F1F4F2FE329830DC0833631F0833773
S113118071F0833509F059C021C0F8018081898349
S11311900E5F1F4F88248394912C530113C02801A0
S11311A0F2E04F0E511CF801A080B18036FE03C05E
S11311B0692D70E002C06FEF7FEFC5010E94240A21
S11311C04C018201F32DFF773F2E16C0280122E047
S11311D0420E511CF801A080B18036FE03C0692D77
S11311E070E002C06FEF7FEFC5010E94190A4C0145
S11311F0F32DF0683F2E820133FC1BC0822D90E05A
S113120088169906B0F4B60180E290E00E942F0A95
S11312102A94F4CFF50137FC859137FE81915F0163
S1131220B60190E00E942F0A21102A9421E0821A2C
S113123091088114910471F7E8C0843611F089365D
S113124041F5F80137FE07C0608171818281938185
S11312500C5F1F4F08C060817181072E000C880B42
S1131260990B0E5F1F4FF32DFF763F2E97FF09C09A
S113127090958095709561957F4F8F4F9F4FF06843
S11312803F2E2AE030E0A3010E946B0A882E8618C4
S113129045C0853731F4232D2F7EB22E2AE030E06D
S11312A025C0932D997FB92E8F36C1F018F4883557
S11312B079F0B5C0803719F0883721F0B0C0E92F34
S11312C0E061BE2EB4FE0DC0FB2DF460BF2E09C03C
S11312D034FE0AC0292F2660B22E06C028E030E072
S11312E005C020E130E002C020E132E0F801B7FEA1
S11312F007C060817181828193810C5F1F4F06C09A
S11313006081718180E090E00E5F1F4FA3010E9415
S11313106B0A882E8618FB2DFF773F2E36FE0DC0F4
S1131320232D2E7FA22E891458F434FE0BC032FCD8
S113133009C0832D8E7EA82E05C0B82CA32C03C013
S1131340B82C01C0B92CA4FE0FC0FE01E80DF11D9C
S11313508081803321F49A2D997EA92E09C0A2FEA2
S113136006C0B394B39404C08A2D867809F0B3946C
S1131370A3FC11C0A0FE06C0B21488F4280C922C61
S11313809B180EC0B21460F4B60180E290E00E9493
S11313902F0AB394F7CFB21418F42B1802C0982C68
S11313A0212CA4FE10C0B60180E390E00E942F0A15
S11313B0A2FE17C0A1FC03C088E790E002C088E544
S11313C090E0B6010CC08A2D867859F0A1FE02C0C7
S11313D08BE201C080E2A7FC8DE2B60190E00E949E
S11313E02F0A891438F4B60180E390E00E942F0A92
S11313F09A94F7CF8A94F301E80DF11D8081B60128
S113140090E00E942F0A8110F5CF222009F43FCEEC
S1131410B60180E290E00E942F0A2A94F6CFF601EA
S11314208681978102C08FEF9FEF2B96E2E10C94A7
S1131430280BFC010590615070400110D8F780958D
S113144090958E0F9F1F0895FC016150704001908C
S11314500110D8F7809590958E0F9F1F08950F93D4
S11314601F93CF93DF93FB01238121FD03C08FEFF3
S11314709FEF2CC022FF16C04681578124813581FD
S11314804217530744F4A081B1819D012F5F3F4F60
S1131490318320838C93268137812F5F3F4F37839D
S11314A0268314C08B01EC01FB010084F185E02D3F
S11314B00995892BE1F6D80116968D919C91179781
S11314C0019617969C938E931697CE01DF91CF9138
S11314D01F910F910895FA01AA27283061F1203154
S11314E091F1E8946F936E7F6E5F7F4F8F4F9F4FA4
S11314F0AF4FB1E040D0B4E03ED0670F781F891FF2
S11315009A1FA11D680F791F8A1F911DA11D6A0FC3
S1131510711D811D911DA11D22D009F468943F9174
S1131520062E000C3019000C000C3019305D31937C
S1131530CEF6CF010895462F4770405D4193B3E046
S11315400FD0C9F7F6CF462F4F70405D4A3318F0DD
S1131550495D31FD4052419302D0A9F7EACFB4E08E
S1131560A6959795879577956795BA95C9F7009746
S11315706105710508959B01AC010A2E06945795E7
S1131580479537952795BA95C9F7620F731F841F3E
S1131590951FA01D0895002480FD060E660F11F00E
S11315A08695D1F7802D0895EE27FF27AA27BB271C
S11315B008C0A20FB31FE41FF51F220F331F441FDF
S11315C0551F969587957795679598F37040A9F779
S11315D0009799F7BD01CF010895052E97FB1EF4DE
S11315E000940E94040B57FD07D00E94A30707FC38
S11315F003D04EF40C94040B5095409530952195EE
S11316003F4F4F4F5F4F089590958095709561952A
S11316107F4F8F4F9F4F08952F923F924F925F922B
S11316206F927F928F929F92AF92BF92CF92DF92EE
S1131630EF92FF920F931F93CF93DF93CDB7DEB753
S1131640CA1BDB0B0FB6F894DEBF0FBECDBF0994E7
S11316502A88398848885F846E847D848C849B843E
S1131660AA84B984C884DF80EE80FD800C811B814C
S1131670AA81B981CE0FD11D0FB6F894DEBF0FBE7B
S10D1680CDBFED010895F894FFCFEB
S113168A0100000080BB0000028210000001031068
S113169A00000183080000010000000000000000AF
S11316AA0000004465627567206D65737361676540
S10716BA0D0A000011
S9030000FC
