S0100000636F6465626173652E73726563DE
S11300000C9490000C94AD000C94AD000C94AD00D5
S11300100C94AD000C94AD000C94AD000C94AD00A8
S11300200C94AD000C94AD000C94AD000C9438030A
S11300300C94DE030C94AD000C94AD000C94AD0054
S11300400C94AD000C94AD000C94AD000C94AD0078
S11300500C94AD000C94AD000C94AD000C94AD0068
S11300600C94AD000C94AD000C94AD000C94AD0058
S11300700C94AD00F801FF011A02FF011A020602F6
S11300800B021A02110216020E0330003000300077
S11300903000300031000000340338002D004300EC
S11300A0680061006E006E0065006C002000560060
S11300B06F006C00740061006700650020004D0053
S11300C06F006E00690074006F007200000020036E
S11300D056006F006C00740061006700650020002A
S11300E04D006F006E00690074006F007200000024
S11300F00403090409021900010100803209040003
S11301000001FFFFFF00070581024000011201000A
S113011002FFFFFF40EB034820000101020301003E
S113012011241FBECFEFD2E0DEBFCDBF11E0A0E0AF
S1130130B1E0ECE5FFE002C005900D92A630B107F6
S1130140D9F722E0A6E0B1E001C01D92A435B207C0
S1130150E1F70E941D050C94AC070C940000292FB4
S113016033272230310559F02330310569F021302D
S1130170310569F180E090E020E030E031C089E1B0
S113018090E024EF30E02CC099278130910569F08C
S113019030F08230910579F0039799F01DC0E0EFBB
S11301A0F0E0849190E09F011BC0EEECF0E08491BC
S11301B090E09F0115C0E8E9F0E0849190E09F0190
S11301C00FC0E8E8F0E0849190E09F0109C082E16B
S11301D090E02DE031E004C080E090E020E030E0E9
S11301E0FA0131832083089580914C02803889F08C
S11301F08238F1F4809150028F708530C8F4E9EEB2
S1130200F0E080839091EB0095FB992790F91082A0
S113021001C090E0E8EEF0E08081877F8083A1EF69
S1130220B0E09C931C9280818E7780830E94C402EC
S1130230089580914C028F718230C1F580914E02F5
S113024081112BC0809150028F709FEF980F9430D2
S113025068F58093E9009091EB0090FF1EC09091A7
S11302604D02933031F4EBEEF0E0808180628083C4
S113027014C0EBEEF0E090819061908321E030E0D7
S1130280A90102C0440F551F8A95E2F7AAEEB0E017
S11302904C931C928081886080831092E900E8EE80
S11302A0F0E08081877F80830E94C4020895CF9309
S11302B0C0914E02CF77E3EEF0E0808180788C2B02
S11302C08083E8EEF0E08081877F80830E94C4020F
S11302D08091E80080FFFCCFE3EEF0E0808180684D
S11302E08083CC2311F083E001C082E080934B0231
S11302F0CF910895E8EEF0E08081877F808380913C
S113030049028093F10080818E7780830E94C40229
S113031008950F931F93CF93DF9300D0CDB7DEB72B
S1130320ECE4F2E064817581AE014F5F5F4F82813E
S113033093810E94AF00009779F008EE10E0F80175
S11303402081277F2083BC0189819A810E94290210
S1130350F80180818B7780830F900F90DF91CF918C
S11303601F910F91089580914E0290914F02992709
S11303700297F4F4E8EEF0E08081877F8083809137
S11303804E02809349020E94C4028091490288234C
S113039021F084E080934B0209C08091E30088231C
S11303A014F484E001C081E080934B020E94E502D2
S11303B0089580E0ECE4F2E005C09091F1009083B0
S11303C08F5F31968830C8F30E94E5028091E8007F
S11303D083FF30C0ECE4F2E02081E1818E2F90E0D5
S11303E08A30910538F5FC01E65CFF4F0C94EE066B
S11303F0203811F02238F1F40E94F4001BC02223AB
S113040011F02230B9F40E94190114C0211112C054
S11304100E9457010FC02058223060F40E948901C5
S113042009C0203839F40E947A0104C0211102C0A5
S11304300E94B3018091E80083FF0AC0E8EEF0E077
S11304408081877F8083EBEEF0E08081806280830F
S1130450089520915202309153022617370758F01D
S11304606115710539F4E8EEF0E020812E772083E0
S11304709B0101C09B01E82FF92F40E02FC0809120
S11304804B02882309F440C0853009F43FC08091B1
S1130490E80083FD3DC08091E80082FD2FC080917B
S11304A0E80080FF1BC08091F20090E007C04491F7
S11304B04093F100319621503109019621153105FF
S11304C019F08034910598F341E08034910509F0E6
S11304D040E0A8EEB0E08C918E778C932115310525
S11304E071F64111CCCF0AC080914B02882391F060
S11304F0853091F08091E80083FD10C08091E80080
S113050082FFF2CF80E0089582E0089583E00895A9
S113051081E0089582E0089583E0089581E00895DC
S1130520982F29C0292F2F702093E900981739F0AC
S11305307091EC002091ED005091F00003C0242F45
S1130540762F50E021FF16C0EBEEF0E030813E7FC5
S11305503083ADEEB0E03C913D7F3C93308131601F
S113056030837093EC002C935093F0002091EE00B4
S1130570222344F49F5F9530A8F28F708093E900A2
S113058081E0089580E0089580914C0288239CF4D2
S113059004C080914B028823B9F08091E80082FF67
S11305A0F8CFE8EEF0E080818B7780830895809126
S11305B04B02882349F08091E80080FFF8CFE8EEF1
S11305C0F0E080818E7780830895089510924B0225
S11305D01092490288E090E040E003C04F5F880F2A
S11305E0991F80349105D0F34295407F426060E0CA
S11305F080E00E949002E1EEF0E080818E7F8083B3
S1130600E2EEF0E080818160808380818860808375
S1130610E0EEF0E080818E7F808308950E943203B3
S11306200E943503E8EDF0E080818F77808380813C
S11306308068808380818F7D808384E089BD86E0AB
S113064089BD09B400FEFDCF0E94E6020895E3E6E9
S1130650F0E080818E7F808381E080934A020E9453
S11306600E0308951092E20008951092E100089597
S11306701F920F920FB60F9211242F933F934F9313
S11306805F936F937F938F939F93AF93BF93EF93F6
S1130690FF938091E10080FF17C08091E20080FF0A
S11306A013C0E2EEF0E080818E7F808380818061E0
S11306B08083E8EDF0E080818062808319BC85E06E
S11306C080934B020E94E5028091E10084FF30C0D8
S11306D08091E20084FF2CC084E089BD86E089BD5E
S11306E009B400FEFDCFE8EDF0E080818F7D8083CA
S11306F0E1EEF0E080818F7E8083E2EEF0E08081A5
S11307008F7E8083808181608083809149028823E9
S113071021F084E080934B0209C08091E300882398
S113072014F483E001C081E080934B020E94E5024F
S11307308091E10083FF31C08091E20083FF2DC0EE
S1130740E1EEF0E08081877F808382E080934B023A
S11307501092490280818E7F8083E2EEF0E08081F6
S11307608E7F808380818061808388E090E040E098
S113077003C04F5F880F991F80349105D0F34295D1
S1130780407F426060E080E00E949002E0EFF0E091
S11307908081886080830E94E502FF91EF91BF9180
S11307A0AF919F918F917F916F915F914F913F9105
S11307B02F910F900FBE0F901F9018951F920F92BC
S11307C00FB60F921124EF92FF921F932F933F9332
S11307D04F935F936F937F938F939F93AF93BF9345
S11307E0CF93DF93EF93FF93C091E900CF70809193
S11307F0EC00982F917080FD90E8192F1C2B0F2E80
S1130800F9EEEF2EF12CF02DF7011082C0EFD0E0BD
S11308108881877F888378940E94D901F7011082A8
S1130820888188608883C12FCF70C083FF91EF9146
S1130830DF91CF91BF91AF919F918F917F916F91F4
S11308405F914F913F912F911F91FF90EF900F90E7
S11308500FBE0F901F901895AC0120E030E007C048
S113086016BCA99BFECF92E095BB2F5F3F4F241788
S11308703507B0F30895AF92BF92CF92DF92EF9213
S1130880FF920F931F93CF93DF93B82EA62ECA0126
S11308906B2D70E00E94DA067B0100E010E01DC0C1
S11308A085B1C1E0D0E00A2C02C0CC0FDD1F0A9450
S11308B0E2F78C2B85B96701D694C794C6010E94D0
S11308C02C0495B181E0CD2B09F080E0892385B912
S11308D0C6010E942C040F5F1F4F8B2D90E0081758
S11308E01907F4F281E0DF91CF911F910F91FF90EE
S11308F0EF90DF90CF90BF90AF900895CF93DF93A8
S1130900CDB7DEB764970FB6F894DEBF0FBECDBF88
S113091019821A821B821C820E94420793789923AF
S11309201CF401979C6F0196BC0180E090E00E944A
S1130930D70520E030E040EA50E40E94650620E05C
S113094030EC4FE754E40E9436050E94A80580E08D
S113095010C0E82FF0E03296EE0FFF1F21E030E0E8
S11309602C0F3D1FE20FF31F262F30E0318320832D
S11309708F5F883070F38091080190E00196907841
S113098099231CF401979F6F01962091070130E091
S113099082179307C1F0A0910801B0E0A75FBE4F92
S11309A084E1FE01319601900D928A95E1F78091E0
S11309B0080190E00196907899231CF401979F6FA9
S11309C001968093080164960FB6F894DEBF0FBEBB
S11309D0CDBFDF91CF91089580910601853061F5F7
S11309E080910401882341F19091080180910701CD
S11309F0981711F1E0910701F0E0E75FFE4F84E101
S1130A00A9E0B2E001900D928A95E1F78091070187
S1130A1090E00196907899231CF401979F6F0196BA
S1130A208093070181E88093E900E8EEF0E080819B
S1130A308E7F80831092040108950E942703789486
S1130A4080914B02853059F448EE53E065E082E032
S1130A500E943B040E947E040E94EC04F1CF48EE05
S1130A6053E065E08AE00E943B04EACF0E944A0515
S1130A700C942B060E94240658F00E941D0640F098
S1130A8029F45F3F29F00C94140651110C945F066D
S1130A900C941A060E943C0668F39923B1F355237B
S1130AA091F3951B550BBB27AA276217730784077D
S1130AB038F09F5F5F4F220F331F441FAA1FA9F313
S1130AC035D00E2E3AF0E0E832D091505040E69501
S1130AD0001CCAF72BD0FE2F29D0660F771F881F62
S1130AE0BB1F261737074807AB07B0E809F0BB0B55
S1130AF0802DBF01FF2793585F4F3AF09E3F510569
S1130B0078F00C9414060C945F065F3FE4F3983E6F
S1130B10D4F3869577956795B795F7959F5FC9F751
S1130B20880F911D9695879597F90895E1E0660FD2
S1130B30771F881FBB1F621773078407BA0720F04B
S1130B40621B730B840BBA0BEE1F88F7E0950895B4
S1130B500E94440688F09F5798F0B92F9927B751FF
S1130B60B0F0E1F0660F771F881F991F1AF0BA954D
S1130B70C9F714C0B13091F00E945E06B1E0089547
S1130B800C945E06672F782F8827B85F39F0B93F39
S1130B90CCF3869577956795B395D9F73EF4909500
S1130BA08095709561957F4F8F4F9F4F0895E8947E
S1130BB009C097FB3EF490958095709561957F4FA1
S1130BC08F4F9F4F9923A9F0F92F96E9BB2793954F
S1130BD0F695879577956795B795F111F8CFFAF45F
S1130BE0BB0F11F460FF1BC06F5F7F4F8F4F9F4F90
S1130BF016C0882311F096E911C0772321F09EE8EE
S1130C00872F762F05C0662371F096E8862F70E053
S1130C1060E02AF09A95660F771F881FDAF7880F2D
S1130C209695879597F9089597F99F6780E870E0FE
S1130C3060E008959FEF80EC089500240A9416164E
S1130C40170618060906089500240A9412161306B6
S1130C50140605060895092E0394000C11F4882344
S1130C6052F0BB0F40F4BF2B11F460FF04C06F5F60
S1130C707F4F8F4F9F4F089557FD9058440F551F36
S1130C8059F05F3F71F04795880F97FB991F61F00A
S1130C909F3F79F087950895121613061406551F81
S1130CA0F2CF4695F1DF08C0161617061806991FED
S1130CB0F1CF86957105610508940895E894BB27E2
S1130CC066277727CB0197F908950E9477060C943D
S1130CD02B060E941D0638F00E94240620F095235E
S1130CE011F00C9414060C941A060C945F060E94DE
S1130CF03C0678F39923C9F35523B9F3950F50E0D3
S1130D00551FAA27EE27FF27BB27002408946795C1
S1130D1020F4E20FF31FB41F0A1E220F331F441FD7
S1130D20AA1F6695A9F7779530F4F30FB41F0A1E2E
S1130D30121E08F46395330F441FAA1F221F7695D1
S1130D4099F7879520F4B40F0A1E121E631F440FEF
S1130D50AA1F221F331F8695A9F7862F712D602D98
S1130D6011249F5750409AF0F1F088234AF0EE0F77
S1130D70FF1FBB1F661F771F881F91505040A9F7A4
S1130D809E3F510580F00C9414060C945F065F3F5F
S1130D90E4F3983ED4F3869577956795B795F795E0
S1130DA0E7959F5FC1F7FE2B880F911D9695879558
S1130DB097F90895AA1BBB1B51E107C0AA1FBB1FCB
S1130DC0A617B70710F0A61BB70B881F991F5A95D3
S1130DD0A9F780959095BC01CD010895EE0FFF1FF2
S1130DE00590F491E02D09948F929F92AF92BF9257
S1130DF0CF92DF92EF92FF92CF93DF93EC01688161
S1130E0079818A819B81611571058105910521F4A0
S1130E1064E279ED8BE597E02DE133EF41E050E0BA
S1130E200E946B0749015A0127EA31E440E050E08F
S1130E300E9452076B017C012CEE34EF4FEF5FEF01
S1130E40C501B4010E945207DC01CB018C0D9D1D2C
S1130E50AE1DBF1DB7FF03C00197A109B048888329
S1130E609983AA83BB839F77DF91CF91FF90EF9003
S1130E70DF90CF90BF90AF909F908F9008950E9485
S1130E80F406089580E091E00E94F4060895A0E03D
S1130E90B0E08093000190930101A0930201B0930C
S1130EA003010895EE27FF27AA27BB2708C0A20F36
S1130EB0B31FE41FF51F220F331F441F551F9695C0
S1130EC087957795679598F37040A9F7009799F7F8
S1130ED0BD01CF010895052E97FB1EF400940E94D6
S1130EE0820757FD07D00E948A0707FC03D04EF4FF
S1130EF00C94820750954095309521953F4F4F4F64
S1130F005F4F089590958095709561957F4F8F4FB1
S1130F109F4F0895A1E21A2EAA1BBB1BFD010DC011
S1130F20AA1FBB1FEE1FFF1FA217B307E407F50795
S1130F3020F0A21BB30BE40BF50B661F771F881F71
S1130F40991F1A9469F760957095809590959B0107
S10F0F50AC01BD01CF010895F894FFCF5F
S1090F5C01000000010089
S9030000FC
