:100000000C94A4000C94C1000C94C1000C94C10089
:100010000C94C1000C94C1000C94C1000C94C1005C
:100020000C94C1000C94C1000C94C1000C94E90321
:100030000C94C1000C94C1000C94C1000C94C1003C
:100040000C94C1000C94C1000C94C1000C94780570
:100050000C94C1000C94C1000C94C1000C94C1001C
:100060000C94C1000C94C1000C94C1000C94C1000C
:100070000C94C1001C0143013B0243013B028F0170
:10008000B2013B0209021802160343006500720028
:1000900065006C006F006700200058003800000009
:1000A00020035300630068006C006F006E0067005F
:1000B00020004B0069006E00670064006F006D0057
:1000C00000000403090409027000020100C0C8090D
:1000D000040000000101000009240100011E0001CC
:1000E000010C2402010102000100000000092403A8
:1000F00002010100010009040100000102000009E1
:10010000040101010102000007240102010100179E
:1001100024020101021005401F00112B002256008D
:1001200044AC0080BB000905810D000101000007FF
:100130002501010000001201100100000008D80490
:100140002DE502000102000111241FBECFEFD2E015
:10015000DEBFCDBF11E0A0E0B1E0EEE6F9E102C004
:1001600005900D92A036B107D9F721E0A0E6B1E0E5
:1001700001C01D92AF36B207E1F70E943E070C9412
:10018000B50C0C940000292F33272230310559F08B
:100190002330310569F021303105E9F482E190E046
:1001A00026E331E01CC080E790E026EC30E017C089
:1001B00099278130910549F028F0029761F4E8E829
:1001C000F0E005C0E2ECF0E002C0E0EAF0E084918B
:1001D00090E09F0104C080E090E020E030E0FA0170
:1001E0003183208308951F93CF93DF93CDB7DEB77C
:1001F000AA970FB6F894DEBF0FBECDBFE6E6F1E0DA
:100200008091F100819321E0EE36F207C9F70E9458
:10021000D5048091E80083FF2EC180916601909102
:100220006701492F50E04A30510508F024C1FA0116
:10023000E65CFF4F0C944309803821F0823809F0C6
:100240001AC108C08091620190916301992389F0DD
:1002500082600FC080916A018F70853008F00BC1F9
:100260008093E9008091EB0085FB882780F910924C
:10027000E9009091E800977F9093E8008093F10067
:100280001092F100D1C0282F2D7F09F0F4C08823EF
:1002900019F0823061F0EFC080916801813009F07F
:1002A000EAC0933009F080E0809363012EC0809112
:1002B000680181112AC080916A018F702FEF280F89
:1002C000243008F0D8C08093E9002091EB0020FF93
:1002D0001CC0933021F48091EB00806214C0909197
:1002E000EB0090619093EB0021E030E0A90102C0A7
:1002F000440F551F8A95E2F74093EA001092EA00F6
:100300008091EB0088608093EB001092E90080916F
:10031000E800877F8093E8000E947D03ACC08111D4
:10032000AAC0109168011F778091E3008078812B2B
:100330008093E3008091E800877F8093E8000E942B
:100340007D038091E80080FFFCCF8091E30080680E
:100350008093E300111102C082E001C083E080932A
:10036000650189C08058823008F085C0809168019D
:10037000909169018C3D53E0950779F583E08A837C
:100380008AE289834FB7F894DE01139620E03EE0BD
:1003900051E2E32FF0E050935700E49120FF03C0B7
:1003A000E295EF703F5FEF708E2F90E0EA3010F033
:1003B000C79601C0C0968D939D932F5F243149F756
:1003C0004FBF8091E800877F8093E8006AE270E089
:1003D000CE0101960E94530216C060916A0170918D
:1003E0006B01AE014F5F5F4F0E94C300BC01892BC0
:1003F00009F441C09091E800977F9093E8008981CB
:100400009A810E94EA028091E8008B778093E8004D
:1004100032C0803881F58091E800877F8093E800C2
:10042000809161018093F1008091E8008E7772CF16
:10043000811121C0809168019091690199270297EB
:10044000D4F48091E800877F8093E8008091680170
:10045000809361010E947D0380916101811106C03A
:100460008091E30087FD02C081E001C084E08093B9
:1004700065010E94D0048091E80083FF0AC080914A
:10048000E800877F8093E8008091EB008062809392
:10049000EB00AA960FB6F894DEBF0FBECDBFDF917A
:1004A000CF911F91089520916C0130916D01261715
:1004B000370748F06115710539F42091E8002E776F
:1004C0002093E80001C0B901FC0120E0611571052D
:1004D00061F1809165018823D9F18530D9F180914E
:1004E000E80083FD39C08091E80082FD2BC0809137
:1004F000E80080FFEBCF8091F20090E0611571057C
:1005000051F08830910538F421912093F100615029
:1005100071090196F3CF21E0089709F020E080915E
:10052000E8008E778093E800D1CF2111D2CF0AC0A6
:1005300080916501882361F0853061F08091E80049
:1005400083FD0AC08091E80082FFF2CF80E0089529
:1005500082E0089583E0089581E0089561157105B2
:1005600029F42091E8002B772093E800FC01611525
:10057000710521F180916501882341F1853041F1B8
:100580008091E80083FD20C08091E80082FFEFCFDA
:100590008091F200882331F08091F10081936150C5
:1005A0007109B1F78091E8008B778093E800DFCF85
:1005B00080916501882351F0853051F08091E800E9
:1005C00080FFF6CF80E0089581E0089582E00895ED
:1005D00083E0089520916C0130916D012617370753
:1005E00048F06115710539F42091E8002E772093C9
:1005F000E80001C0B901FC0120E06115710579F145
:1006000080916501882309F43DC0853009F43CC020
:100610008091E80083FD3AC08091E80082FD2CC003
:100620008091E80080FFE9CF8091F20090E06115B1
:10063000710559F08830910540F424912093F10020
:100640003196615071090196F2CF21E0089709F0C7
:1006500020E08091E8008E778093E800CECF2111D2
:10066000CFCF0AC080916501882361F0853061F0A9
:100670008091E80083FD0AC08091E80082FFF2CFFC
:1006800080E0089582E0089583E0089581E0089570
:10069000982F953068F59093E900981739F070918C
:1006A000EC002091ED005091F00003C0242F762F34
:1006B00050E021FD02C09F5FECCF3091EB003E7F08
:1006C0003093EB003091ED003D7F3093ED003091A1
:1006D000EB0031603093EB007093EC002093ED0061
:1006E0005093F0002091EE0027FDE5CF80E00895C3
:1006F0008F708093E90081E008958091660187FF03
:1007000011C08091E80082FD05C0809165018111D2
:10071000F8CF11C08091E8008B770BC08091650104
:10072000882349F08091E80080FFF8CF8091E800AD
:100730008E778093E800089508950E94E3030E9455
:10074000E6038091D8008F778093D8008091D800FD
:1007500080688093D8008091D8008F7D8093D800E6
:1007600084E089BD86E089BD09B400FEFDCF10920A
:10077000650110926101109263011092620142E0E2
:1007800060E080E00E9448038091E1008E7F8093CA
:10079000E1008091E20081608093E2008091E200BC
:1007A00088608093E2008091E0008E7F8093E0007B
:1007B0000895E3E6F0E080818E7F808381E080937E
:1007C00064010C949D031092E20008951092E100E0
:1007D00008951F920F920FB60F9211242F933F93FB
:1007E0004F935F936F937F938F939F93AF93BF9339
:1007F000EF93FF938091E10082FF0BC08091E200B4
:1008000082FF07C08091E1008B7F8093E1000E940E
:100810009C038091E10080FF18C08091E20080FF7E
:1008200014C08091E2008E7F8093E2008091E2000C
:1008300080618093E2008091D80080628093D8002C
:1008400019BC109265010E94CC048091E10084FFE4
:1008500030C08091E20084FF2CC084E089BD86E036
:1008600089BD09B400FEFDCF8091D8008F7D8093B3
:10087000D8008091E1008F7E8093E1008091E200BA
:100880008F7E8093E2008091E20081608093E2009D
:1008900080916101882311F084E007C08091E3001A
:1008A00087FD02C081E001C083E0809365010E9462
:1008B000B4048091E10083FF24C08091E20083FFB3
:1008C00020C08091E100877F8093E10082E08093E7
:1008D0006501109261018091E1008E7F8093E100BB
:1008E0008091E2008E7F8093E2008091E20080613F
:1008F0008093E20042E060E080E00E9448030E94B2
:100900009C03FF91EF91BF91AF919F918F917F9148
:100910006F915F914F913F912F910F900FBE0F906C
:100920001F901895CF93809165018823A1F0C09105
:10093000E900CF709091EC00892F817090FD80E8E4
:10094000C82B1092E9008091E80083FD0E94F3001B
:10095000CF70C093E900CF9108952F988EBD0DB44C
:1009600007FEFDCF2F9A0895CF93C2E0C0936E008B
:100970002091040130910501409106015091070139
:1009800060E874E88EE190E00E942109215027BDC3
:10099000C4BDC5BDCF91089515BC109260010895E6
:1009A00046E561E481E00C944803CF93DF9300D0E7
:1009B0001F92CDB7DEB7809167018B3051F018F4EC
:1009C000813061F18FC0813809F467C08F3FC1F079
:1009D00089C080916601813009F084C08091E8006F
:1009E000877F8093E8000E947D0381E02091680169
:1009F00030916901232B09F480E08093600172C07B
:100A0000809166018152823008F06CC08091E800CC
:100A1000877F8093E8000E947D0364C08091660117
:100A2000823209F05FC080916A01813809F05AC0B2
:100A300080916901813009F055C08091E800877F7D
:100A40008093E80063E070E0CE0101960E94AE0260
:100A50008091E8008E778093E8008B812A81422F75
:100A600050E060E070E0762F652F542F4427682B0C
:100A700089819A01AB01282B209304013093050151
:100A8000409306015093070160E874E88EE190E01E
:100A90000E942109215027BD25C080916601823A1C
:100AA00009F580916A018138E9F48091690181300A
:100AB000C9F48091040190910501209106012B83D6
:100AC0009A8389838091E800877F8093E80063E0C0
:100AD00070E0CE0101960E9453028091E8008B776E
:100AE0008093E8000F900F900F90DF91CF910895C1
:100AF0001F920F920FB60F9211242F933F934F9393
:100B00005F936F937F938F939F93AF93BF93CF9395
:100B1000EF93FF93C091E900CF709091EC00892F83
:100B2000817090FD80E8C82B81E08093E90080917E
:100B3000E80080FF14C080916001882381F00E944A
:100B4000970990588093F1009093F1008091E8000C
:100B500085FD05C08091E8008E778093E800CF7016
:100B6000C093E900FF91EF91CF91BF91AF919F9119
:100B70008F917F916F915F914F913F912F910F9046
:100B80000FBE0F901F901895611102C00C94AD0418
:100B90008EBD0DB407FEFDCF0895FF920F931F93F6
:100BA000CF93DF93F62E072F142F2F988F7161E0CC
:100BB00080640E94C40561E08FEF810F0E94C4052C
:100BC000CF2DD02FCE01810F911D8C01C017D107E1
:100BD00029F061E089910E94C405F8CF2F9ADF9136
:100BE000CF911F910F91FF90089581E10E94AD0474
:100BF00010926E0108950F931F93CF93DF93C82F28
:100C0000162F072FD42F80916E01813011F40E948E
:100C1000F5052F988C2F8F7161E080620E94C405CA
:100C200061E08FEF8D0F0E94C405912FE12FF02F0F
:100C30008E2F891B8D1738F41EBC0DB407FEFDCF17
:100C40008EB58193F5CF2F9ADF91CF911F910F91A0
:100C500008950F931F93DC01CB0122E0880F991FA9
:100C6000AA1FBB1F2A95D1F71092800021E0209384
:100C700081001092850010928400009184001091F0
:100C8000850020E030E0081719072A073B0790F499
:100C90002091840030918500293E3D4F70F3893EBC
:100CA0002DEF9207A105B10540F3885E9D4FA10984
:100CB000B109DFCF109281001F910F910895AF927B
:100CC000BF92CF92DF92EF92FF920F931F93CF9339
:100CD000DF93082FE62FCA01B90110E0C1E0D0E090
:100CE00001C0CC0FEA95EAF7DC2F20E030E04AE7BC
:100CF00054E40E947D0720E034E244E75BE40E9474
:100D0000AC086B017C01B801012E000C880B990B1B
:100D10000E9420089B01AC01C701B6010E947D071B
:100D20000E94EF076B017C01F694E794D794C79477
:100D3000C095A12CB12CA016B10694F48BB18D2BCB
:100D40008BB9C701B6010E9429068BB18C238BB9E0
:100D5000C701B6010E9429068FEFA81AB80AEBCF87
:100D600081E0DF91CF911F910F91FF90EF90DF9085
:100D7000CF90BF90AF900895FF920F931F93CF93A2
:100D8000DF9300D0CDB7DEB75C9A66E170E080E01B
:100D900090E00E94290658985C9866E170E080E037
:100DA00090E00E942906589A5C9A66E170E080E023
:100DB00090E00E9429060E94F50580EE8A8341E0BA
:100DC000BE016E5F7F4F83E00E94CD0566E170E05B
:100DD00080E090E00E94290608E011E0FF24F394EF
:100DE000F801808191818E3FFFEF9F0779F0F80134
:100DF0009281998341E0BE016F5F7F4F0E94CD05D4
:100E00006AE070E080E090E00E9429060C5F1F4FCE
:100E1000F394F7E1FF12E4CF0F900F90DF91CF91A1
:100E20001F910F91FF90089584B7877F84BF0FB6FD
:100E3000F894A8958091600088618093600010927A
:100E400060000FBE90E080E80FB6F89480936100D8
:100E5000909361000FBE0E94D9038AE080936E01D7
:100E600084B1806E84B9249881E58CBD0E94BC0653
:100E70006DE070E080E090E00C942906CF93DF9362
:100E80001F92CDB7DEB70E9414077894579A20E0DE
:100E900030E040E050E467E085E00E945F0660E1FA
:100EA00070E080E090E00E94290620E030E040E021
:100EB00050E467E08AE00E945F065F9A02E010E07B
:100EC0000E94920465E170E080E090E00E942906B3
:100ED0000230110579F441E0BE016F5F7F4F8BE076
:100EE0000E94FB0520E030E040E050E467E08981AB
:100EF0000E945F060F5F1F4FE3CF0E9491070C9483
:100F000072080E946B0858F00E94640840F029F4AF
:100F10005F3F29F00C945B0851110C94A6080C94C7
:100F200061080E94830868F39923B1F3552391F374
:100F3000951B550BBB27AA2762177307840738F048
:100F40009F5F5F4F220F331F441FAA1FA9F335D0A5
:100F50000E2E3AF0E0E832D091505040E695001C59
:100F6000CAF72BD0FE2F29D0660F771F881FBB1F13
:100F7000261737074807AB07B0E809F0BB0B802DF1
:100F8000BF01FF2793585F4F3AF09E3F510578F01D
:100F90000C945B080C94A6085F3FE4F3983ED4F3EE
:100FA000869577956795B795F7959F5FC9F7880FF1
:100FB000911D9695879597F90895E1E0660F771F43
:100FC000881FBB1F621773078407BA0720F0621BD4
:100FD000730B840BBA0BEE1F88F7E09508950E94FF
:100FE0008B0888F09F5798F0B92F9927B751B0F028
:100FF000E1F0660F771F881F991F1AF0BA95C9F79D
:1010000014C0B13091F00E94A508B1E008950C948D
:10101000A508672F782F8827B85F39F0B93FCCF340
:10102000869577956795B395D9F73EF49095809519
:10103000709561957F4F8F4F9F4F0895E89409C039
:1010400097FB3EF490958095709561957F4F8F4FFB
:101050009F4F9923A9F0F92F96E9BB279395F69511
:10106000879577956795B795F111F8CFFAF4BB0F8F
:1010700011F460FF1BC06F5F7F4F8F4F9F4F16C0F3
:10108000882311F096E911C0772321F09EE8872F7D
:10109000762F05C0662371F096E8862F70E060E039
:1010A0002AF09A95660F771F881FDAF7880F9695B2
:1010B000879597F9089597F99F6780E870E060E059
:1010C00008959FEF80EC089500240A9416161706E1
:1010D00018060906089500240A9412161306140629
:1010E00005060895092E0394000C11F4882352F08C
:1010F000BB0F40F4BF2B11F460FF04C06F5F7F4F44
:101100008F4F9F4F089557FD9058440F551F59F02A
:101110005F3F71F04795880F97FB991F61F09F3FE4
:1011200079F087950895121613061406551FF2CF0D
:101130004695F1DF08C0161617061806991FF1CF5D
:1011400086957105610508940895E894BB27662784
:101150007727CB0197F908950E94BE080C94720876
:101160000E94640838F00E946B0820F0952311F06B
:101170000C945B080C9461080C94A6080E948308E8
:1011800078F39923C9F35523B9F3950F50E0551F10
:10119000AA27EE27FF27BB2700240894679520F491
:1011A000E20FF31FB41F0A1E220F331F441FAA1F92
:1011B0006695A9F7779530F4F30FB41F0A1E121E37
:1011C00008F46395330F441FAA1F221F769599F7E1
:1011D000879520F4B40F0A1E121E631F440FAA1F26
:1011E000221F331F8695A9F7862F712D602D11249C
:1011F0009F5750409AF0F1F088234AF0EE0FFF1FFE
:10120000BB1F661F771F881F91505040A9F79E3F54
:10121000510580F00C945B080C94A6085F3FE4F342
:10122000983ED4F3869577956795B795F795E795AA
:101230009F5FC1F7FE2B880F911D9695879597F9B3
:101240000895A1E21A2EAA1BBB1BFD010DC0AA1F07
:10125000BB1FEE1FFF1FA217B307E407F50720F01F
:10126000A21BB30BE40BF50B661F771F881F991F9A
:101270001A9469F760957095809590959B01AC01E3
:10128000BD01CF010895EE0FFF1F0590F491E02DF1
:1012900009948F929F92AF92BF92CF92DF92EF927A
:1012A000FF92CF93DF93EC01688179818A819B81E2
:1012B000611571058105910521F464E279ED8BE5F5
:1012C00097E02DE133EF41E050E00E945F0C4901CF
:1012D0005A0127EA31E440E050E00E94460C6B01DD
:1012E0007C012CEE34EF4FEF5FEFC501B4010E949B
:1012F000460CDC01CB018C0D9D1DAE1DBF1DB7FF43
:1013000003C00197A109B04888839983AA83BB834E
:101310009F77DF91CF91FF90EF90DF90CF90BF90BC
:10132000AF909F908F9008950E944909089580E0A2
:1013300091E00E9449090895A0E0B0E08093000187
:1013400090930101A0930201B09303010895ABE0D3
:10135000B0E0EDEAF9E00C947E0C6C017B018A01AF
:10136000FC0117821682838181FFCFC1CE010196D5
:101370003C01F6019381F70193FD859193FF8191E3
:101380007F01882309F4BDC1853239F493FD85912D
:1013900093FF81917F01853229F4B60190E00E948C
:1013A000A10BE7CF912C212C312CFFE1F315E0F0BC
:1013B0008B3279F038F4803279F08332A9F4232D1E
:1013C000206110C08D3259F0803371F4232D2160DB
:1013D00009C0832D8260382EE32DE46024C0F32DF4
:1013E000F86027C0322E29C037FC2FC020ED280F0F
:1013F0002A3098F436FE07C0892D6AE00E943D0C21
:10140000922E980E1AC0822D6AE00E943D0C222E68
:10141000280E832D8062382E10C08E3231F436FCB7
:1014200070C1E32DE0643E2E08C08C3621F4F32D0C
:10143000F0683F2E02C0883641F4F70193FD859194
:1014400093FF81917F018111B0CF982F9F7D95549B
:10145000933028F40C5F1F4F2FE329830DC0833690
:1014600031F0833771F0833509F059C021C0F8019C
:10147000808189830E5F1F4F88248394912C5301B0
:1014800013C02801F2E04F0E511CF801A080B1807A
:1014900036FE03C0692D70E002C06FEF7FEFC5011B
:1014A0000E94960B4C018201F32DFF773F2E16C050
:1014B000280122E0420E511CF801A080B18036FEC6
:1014C00003C0692D70E002C06FEF7FEFC5010E947D
:1014D0008B0B4C01F32DF0683F2E820133FC1BC0B7
:1014E000822D90E088169906B0F4B60180E290E073
:1014F0000E94A10B2A94F4CFF50137FC859137FEA9
:1015000081915F01B60190E00E94A10B21102A9405
:1015100021E0821A91088114910471F7E8C08436A1
:1015200011F0893641F5F80137FE07C060817181FD
:10153000828193810C5F1F4F08C060817181072EEB
:10154000000C880B990B0E5F1F4FF32DFF763F2E7B
:1015500097FF09C090958095709561957F4F8F4F4B
:101560009F4FF0683F2E2AE030E0A3010E94DD0B80
:10157000882E861845C0853731F4232D2F7EB22E54
:101580002AE030E025C0932D997FB92E8F36C1F027
:1015900018F4883579F0B5C0803719F0883721F014
:1015A000B0C0E92FE061BE2EB4FE0DC0FB2DF4608B
:1015B000BF2E09C034FE0AC0292F2660B22E06C0F5
:1015C00028E030E005C020E130E002C020E132E058
:1015D000F801B7FE07C060817181828193810C5F41
:1015E0001F4F06C06081718180E090E00E5F1F4F49
:1015F000A3010E94DD0B882E8618FB2DFF773F2E5E
:1016000036FE0DC0232D2E7FA22E891458F434FEF1
:101610000BC032FC09C0832D8E7EA82E05C0B82CCD
:10162000A32C03C0B82C01C0B92CA4FE0FC0FE012E
:10163000E80DF11D8081803321F49A2D997EA92E29
:1016400009C0A2FE06C0B394B39404C08A2D867864
:1016500009F0B394A3FC11C0A0FE06C0B21488F434
:10166000280C922C9B180EC0B21460F4B60180E2D4
:1016700090E00E94A10BB394F7CFB21418F42B188A
:1016800002C0982C212CA4FE10C0B60180E390E08B
:101690000E94A10BA2FE17C0A1FC03C088E790E046
:1016A00002C088E590E0B6010CC08A2D867859F01A
:1016B000A1FE02C08BE201C080E2A7FC8DE2B60170
:1016C00090E00E94A10B891438F4B60180E390E009
:1016D0000E94A10B9A94F7CF8A94F301E80DF11DB3
:1016E0008081B60190E00E94A10B8110F5CF2220ED
:1016F00009F43FCEB60180E290E00E94A10B2A944B
:10170000F6CFF6018681978102C08FEF9FEF2B966F
:10171000E2E10C949A0CFC010590615070400110BC
:10172000D8F7809590958E0F9F1F0895FC0161500A
:10173000704001900110D8F7809590958E0F9F1FF3
:1017400008950F931F93CF93DF93FB01238121FD16
:1017500003C08FEF9FEF2CC022FF16C04681578138
:10176000248135814217530744F4A081B1819D0142
:101770002F5F3F4F318320838C93268137812F5FEA
:101780003F4F3783268314C08B01EC01FB0100849B
:10179000F185E02D0995892BE1F6D80116968D91FA
:1017A0009C911797019617969C938E931697CE014E
:1017B000DF91CF911F910F910895FA01AA27283048
:1017C00061F1203191F1E8946F936E7F6E5F7F4FEE
:1017D0008F4F9F4FAF4FB1E040D0B4E03ED0670F86
:1017E000781F891F9A1FA11D680F791F8A1F911DDD
:1017F000A11D6A0F711D811D911DA11D22D009F42B
:1018000068943F91062E000C3019000C000C301922
:10181000305D3193CEF6CF010895462F4770405D7D
:101820004193B3E00FD0C9F7F6CF462F4F70405D1C
:101830004A3318F0495D31FD4052419302D0A9F777
:10184000EACFB4E0A6959795879577956795BA9571
:10185000C9F700976105710508959B01AC010A2E37
:1018600006945795479537952795BA95C9F7620F0E
:10187000731F841F951FA01D0895002480FD060E70
:10188000660F11F08695D1F7802D0895EE27FF277A
:10189000AA27BB2708C0A20FB31FE41FF51F220F02
:1018A000331F441F551F969587957795679598F335
:1018B0007040A9F7009799F7BD01CF010895052E53
:1018C00097FB1EF400940E94760C57FD07D00E94EF
:1018D000210907FC03D04EF40C94760C50954095EA
:1018E000309521953F4F4F4F5F4F089590958095CC
:1018F000709561957F4F8F4F9F4F08952F923F9224
:101900004F925F926F927F928F929F92AF92BF920F
:10191000CF92DF92EF92FF920F931F93CF93DF93BB
:10192000CDB7DEB7CA1BDB0B0FB6F894DEBF0FBE18
:10193000CDBF09942A88398848885F846E847D8465
:101940008C849B84AA84B984C884DF80EE80FD8067
:101950000C811B81AA81B981CE0FD11D0FB6F894DD
:0E196000DEBF0FBECDBFED010895F894FFCF9E
:10196E000100000080BB00000100B0000200D000AA
:10197E000300EC0004000000FEFFFEFF0500600007
:10198E0006006000070060000800600009006000AB
:10199E000A0060000B0060000C0060000D00FF00EC
:1019AE000E00FF000F0000001000000011000000EC
:1019BE00FEFFFEFF150000001600000017000000DD
:00000001FF
