S0100000636F6465626173652E73726563DE
S11300000C943A000C9457000C9457000C9457002D
S11300100C9457000C9457000C9457000C94570000
S11300200C9457000C9457000C9457000C94DB006C
S11300300C9457000C9457000C9457000C945700E0
S11300400C9457000C9457000C9457000C94A00186
S11300500C9457000C9457000C9457000C945700C0
S11300600C9457000C9457000C9457000C945700B0
S11300700C94570011241FBECFEFD2E0DEBFCDBFDA
S113008011E0A0E0B1E0E8EDF1E102C005900D92CD
S1130090A036B107D9F721E0A0E6B1E001C01D9276
S11300A0AF36B207E1F70E94A9030C94EA080C9456
S11300B00000982F953068F59093E900981739F06F
S11300C07091EC002091ED005091F00003C0242FBA
S11300D0762F50E021FD02C09F5FECCF3091EB0002
S11300E03E7F3093EB003091ED003D7F3093ED0087
S11300F03091EB0031603093EB007093EC0020936F
S1130100ED005093F0002091EE0027FDE5CF80E054
S113011008958F708093E90081E0089508950E9406
S1130120D5000E94D8008091D8008F778093D800A2
S11301308091D80080688093D8008091D8008F7D0A
S11301408093D80084E089BD86E089BD09B400FEAF
S1130150FDCF10926501109261011092630110921B
S1130160620142E060E080E00E9459008091E10079
S11301708E7F8093E1008091E20081608093E200B1
S11301808091E20088608093E2008091E0008E7F9D
S11301908093E0000895E3E6F0E080818E7F808321
S11301A081E0809364010C948F001092E200089522
S11301B01092E10008951F920F920FB60F9211242E
S11301C02F933F934F935F936F937F938F939F935B
S11301D0AF93BF93EF93FF938091E10082FF0BC035
S11301E08091E20082FF07C08091E1008B7F8093C1
S11301F0E1000E948E008091E10080FF18C0809190
S1130200E20080FF14C08091E2008E7F8093E200C0
S11302108091E20080618093E2008091D800806246
S11302208093D80019BC109265010E949C018091B2
S1130230E10084FF30C08091E20084FF2CC084E0A0
S113024089BD86E089BD09B400FEFDCF8091D80048
S11302508F7D8093D8008091E1008F7E8093E100B0
S11302608091E2008F7E8093E2008091E2008160C1
S11302708093E20080916101882311F084E007C03B
S11302808091E30087FD02C081E001C083E0809398
S113029065010E9484018091E10083FF24C0809164
S11302A0E20083FF20C08091E100877F8093E1001A
S11302B082E080936501109261018091E1008E7F5C
S11302C08093E1008091E2008E7F8093E200809130
S11302D0E20080618093E20042E060E080E00E94FE
S11302E059000E948E00FF91EF91BF91AF919F91B1
S11302F08F917F916F915F914F913F912F910F90CB
S11303000FBE0F901F901895CF93C2E0C0936E005C
S1130310209104013091050140910601509107019B
S113032060E874E88EE190E00E945C05215027BDEE
S1130330C4BDC5BDCF91089515BC10926001089548
S11303401F920F920FB60F9211242F933F934F9346
S11303505F936F937F938F939F93AF93BF93CF9349
S1130360EF93FF93C091E900CF709091EC00892F37
S1130370817090FD80E8C82B81E08093E900809132
S1130380E80080FF14C080916001882381F00E94FE
S1130390CC0590588093F1009093F1008091E8008F
S11303A085FD05C08091E8008E778093E800CF70CA
S11303B0C093E900FF91EF91CF91BF91AF919F91CD
S11303C08F917F916F915F914F913F912F910F90FA
S11303D00FBE0F901F9018950F931F93DC01CB0154
S11303E022E0880F991FAA1FBB1F2A95D1F71092EC
S11303F0800021E0209381001092850010928400F7
S1130400009184001091850020E030E0081719075E
S11304102A073B0790F42091840030918500293EFF
S11304203D4F70F3893E2DEF9207A105B10540F3CE
S1130430885E9D4FA109B109DFCF109281001F9101
S11304400F9108951F93CF93DF93182F2F98D8E01F
S1130450C0E017FF02C02D9A01C02D9864EF71E02F
S113046080E090E00E94EC012E9A64EF71E080E05D
S113047090E00E94EC01CC0F1C99C1602E98110FE2
S1130480D15039F72F9A8C2FDF91CF911F91089576
S113049081E10E94220210926E0108951F93CF936E
S11304A0DF93D82F611105C0DF91CF911F910C9478
S11304B0220218E0C0E0D7FF02C02D9A01C02D9897
S11304C064EF71E080E090E00E94EC012E9A64EF0A
S11304D071E080E090E00E94EC01CC0F1C99C160B7
S11304E02E98DD0F115039F78C2FDF91CF911F918A
S11304F00895FF920F931F93CF93DF93F62E072F48
S1130500142F2F988F7161E080640E944E0261E085
S11305108FEF810F0E944E02CF2DD02FCE01810F7D
S1130520911D8C01C017D10729F061E089910E94C7
S11305304E02F8CF2F9ADF91CF911F910F91FF9028
S113054008952F923F924F925F926F927F928F9273
S11305509F92AF92BF92CF92DF92EF92FF920F934E
S11305601F93CF93DF93082FC62FCA01B90110E060
S113057020E030E04AE754E40E94B80320E034E28B
S113058044E75BE40E94E7046B017C01B801012E9F
S1130590000C880B990B0E945B049B01AC01C70102
S11305A0B6010E94B8030E942A042B013C0181E099
S11305B090E001C0880FCA95EAF7382E6801CC0C88
S11305C0DD1CE12CF12C282E2094C0E0D0E0C017D3
S11305D0D107C4F48BB183298BB9C301B201A7013C
S11305E096010E945C0549015A01CA01B9010E94A1
S11305F0EC018BB182218BB9C501B4010E94EC01DD
S11306002196E5CF81E0DF91CF911F910F91FF906B
S1130610EF90DF90CF90BF90AF909F908F907F909E
S11306206F905F904F903F902F900895FF920F939B
S11306301F93CF93DF9300D0CDB7DEB75C9A60E011
S113064070E080E190E00E94EC0158985C9860E0D2
S113065070E080E190E00E94EC01589A5C9A60E0BE
S113066070E080E190E00E94EC010E94480280EE7C
S11306708A8341E0BE016E5F7F4F83E00E9479026E
S113068060E070E080E190E00E94EC0108E011E09D
S1130690FF24F394F801808191818E3FFFEF9F073F
S11306A079F0F8019281998341E0BE016F5F7F4F39
S11306B00E9479026AE070E080E090E00E94EC0120
S11306C00C5F1F4FF394F7E1FF12E4CF0F900F90EC
S11306D0DF91CF911F910F91FF90089584B7877F89
S11306E084BF0FB6F894A8958091600088618093C8
S11306F06000109260000FBE90E080E80FB6F8949E
S113070080936100909361000FBE0E94CB008AE049
S113071080936E012F982E9884B1806E84B92498AA
S113072083E58CBD20E030E040E85FE367E08AE0E9
S11307300E94A10260E170E080E090E00E94EC0180
S11307405F9A0E9416036DE070E080E090E00C94E4
S1130750EC010E946E037894579A5F9A80E090E0CF
S1130760A0E1B0E00197A109B109E1F75F98F5CFE5
S11307700E94CC030C94AD040E94A60458F00E947D
S11307809F0440F029F45F3F29F00C949604511122
S11307900C94E1040C949C040E94BE0468F3992315
S11307A0B1F3552391F3951B550BBB27AA27621769
S11307B07307840738F09F5F5F4F220F331F441F76
S11307C0AA1FA9F335D00E2E3AF0E0E832D09150AA
S11307D05040E695001CCAF72BD0FE2F29D0660F97
S11307E0771F881FBB1F261737074807AB07B0E8DA
S11307F009F0BB0B802DBF01FF2793585F4F3AF0E0
S11308009E3F510578F00C9496040C94E1045F3FEC
S1130810E4F3983ED4F3869577956795B795F79565
S11308209F5FC9F7880F911D9695879597F908954D
S1130830E1E0660F771F881FBB1F621773078407E9
S1130840BA0720F0621B730B840BBA0BEE1F88F7F8
S1130850E09508950E94C60488F09F5798F0B92F38
S11308609927B751B0F0E1F0660F771F881F991FE1
S11308701AF0BA95C9F714C0B13091F00E94E0049F
S1130880B1E008950C94E004672F782F8827B85FAF
S113089039F0B93FCCF3869577956795B395D9F739
S11308A03EF490958095709561957F4F8F4F9F4F43
S11308B00895E89409C097FB3EF49095809570954F
S11308C061957F4F8F4F9F4F9923A9F0F92F96E998
S11308D0BB279395F695879577956795B795F1110D
S11308E0F8CFFAF4BB0F11F460FF1BC06F5F7F4FAA
S11308F08F4F9F4F16C0882311F096E911C07723BC
S113090021F09EE8872F762F05C0662371F096E8C4
S1130910862F70E060E02AF09A95660F771F881F93
S1130920DAF7880F9695879597F9089597F99F6751
S113093080E870E060E008959FEF80EC0895002463
S11309400A941616170618060906089500240A9430
S113095012161306140605060895092E0394000CB6
S113096011F4882352F0BB0F40F4BF2B11F460FF45
S113097004C06F5F7F4F8F4F9F4F089557FD90586E
S1130980440F551F59F05F3F71F04795880F97FB4F
S1130990991F61F09F3F79F0879508951216130609
S11309A01406551FF2CF4695F1DF08C01616170638
S11309B01806991FF1CF869571056105089408956D
S11309C0E894BB2766277727CB0197F908950E94FF
S11309D0F9040C94AD040E949F0438F00E94A6040C
S11309E020F0952311F00C9496040C949C040C9420
S11309F0E1040E94BE0478F39923C9F35523B9F3A3
S1130A00950F50E0551FAA27EE27FF27BB27002488
S1130A100894679520F4E20FF31FB41F0A1E220FF7
S1130A20331F441FAA1F6695A9F7779530F4F30F77
S1130A30B41F0A1E121E08F46395330F441FAA1F25
S1130A40221F769599F7879520F4B40F0A1E121E7B
S1130A50631F440FAA1F221F331F8695A9F7862FF1
S1130A60712D602D11249F5750409AF0F1F0882386
S1130A704AF0EE0FFF1FBB1F661F771F881F9150A0
S1130A805040A9F79E3F510580F00C9496040C94B5
S1130A90E1045F3FE4F3983ED4F386957795679538
S1130AA0B795F795E7959F5FC1F7FE2B880F911DCA
S1130AB09695879597F90895A1E21A2EAA1BBB1B58
S1130AC0FD010DC0AA1FBB1FEE1FFF1FA217B30716
S1130AD0E407F50720F0A21BB30BE40BF50B661F2C
S1130AE0771F881F991F1A9469F7609570958095F0
S1130AF090959B01AC01BD01CF0108958F929F9207
S1130B00AF92BF92CF92DF92EF92FF92CF93DF9397
S1130B10EC01688179818A819B8161157105810568
S1130B20910521F464E279ED8BE597E02DE133EF53
S1130B3041E050E00E94940849015A0127EA31E457
S1130B4040E050E00E947B086B017C012CEE34EF06
S1130B504FEF5FEFC501B4010E947B08DC01CB01BC
S1130B608C0D9D1DAE1DBF1DB7FF03C00197A109CC
S1130B70B04888839983AA83BB839F77DF91CF9101
S1130B80FF90EF90DF90CF90BF90AF909F908F90A9
S1130B9008950E947E05089580E091E00E947E05FC
S1130BA00895A0E0B0E08093000190930101A09328
S1130BB00201B09303010895ABE0B0E0E2EEF5E08A
S1130BC00C94B3086C017B018A01FC011782168224
S1130BD0838181FFCFC1CE0101963C01F60193814F
S1130BE0F70193FD859193FF81917F01882309F497
S1130BF0BDC1853239F493FD859193FF81917F01C5
S1130C00853229F4B60190E00E94D607E7CF912CF3
S1130C10212C312CFFE1F315E0F08B3279F038F41C
S1130C20803279F08332A9F4232D206110C08D32F3
S1130C3059F0803371F4232D216009C0832D826023
S1130C40382EE32DE46024C0F32DF86027C0322E43
S1130C5029C037FC2FC020ED280F2A3098F436FE27
S1130C6007C0892D6AE00E947208922E980E1AC05D
S1130C70822D6AE00E947208222E280E832D806243
S1130C80382E10C08E3231F436FC70C1E32DE0648E
S1130C903E2E08C08C3621F4F32DF0683F2E02C09E
S1130CA0883641F4F70193FD859193FF81917F018B
S1130CB08111B0CF982F9F7D9554933028F40C5F09
S1130CC01F4F2FE329830DC0833631F0833771F032
S1130CD0833509F059C021C0F801808189830E5FF2
S1130CE01F4F88248394912C530113C02801F2E0F0
S1130CF04F0E511CF801A080B18036FE03C0692D4F
S1130D0070E002C06FEF7FEFC5010E94CB074C017A
S1130D108201F32DFF773F2E16C0280122E0420EF8
S1130D20511CF801A080B18036FE03C0692D70E02B
S1130D3002C06FEF7FEFC5010E94C0074C01F32D85
S1130D40F0683F2E820133FC1BC0822D90E0881690
S1130D509906B0F4B60180E290E00E94D6072A9486
S1130D60F4CFF50137FC859137FE81915F01B6011F
S1130D7090E00E94D60721102A9421E0821A91085B
S1130D808114910471F7E8C0843611F0893641F575
S1130D90F80137FE07C060817181828193810C5F05
S1130DA01F4F08C060817181072E000C880B990BBE
S1130DB00E5F1F4FF32DFF763F2E97FF09C09095CE
S1130DC08095709561957F4F8F4F9F4FF0683F2EB0
S1130DD02AE030E0A3010E941208882E861845C03C
S1130DE0853731F4232D2F7EB22E2AE030E025C042
S1130DF0932D997FB92E8F36C1F018F4883579F088
S1130E00B5C0803719F0883721F0B0C0E92FE06110
S1130E10BE2EB4FE0DC0FB2DF460BF2E09C034FEFF
S1130E200AC0292F2660B22E06C028E030E005C093
S1130E3020E130E002C020E132E0F801B7FE07C053
S1130E4060817181828193810C5F1F4F06C0608134
S1130E50718180E090E00E5F1F4FA3010E94120891
S1130E60882E8618FB2DFF773F2E36FE0DC0232DCE
S1130E702E7FA22E891458F434FE0BC032FC09C014
S1130E80832D8E7EA82E05C0B82CA32C03C0B82CAD
S1130E9001C0B92CA4FE0FC0FE01E80DF11D808134
S1130EA0803321F49A2D997EA92E09C0A2FE06C092
S1130EB0B394B39404C08A2D867809F0B394A3FC48
S1130EC011C0A0FE06C0B21488F4280C922C9B1802
S1130ED00EC0B21460F4B60180E290E00E94D6071E
S1130EE0B394F7CFB21418F42B1802C0982C212C09
S1130EF0A4FE10C0B60180E390E00E94D607A2FED3
S1130F0017C0A1FC03C088E790E002C088E590E028
S1130F10B6010CC08A2D867859F0A1FE02C08BE27E
S1130F2001C080E2A7FC8DE2B60190E00E94D607E2
S1130F30891438F4B60180E390E00E94D6079A94AD
S1130F40F7CF8A94F301E80DF11D8081B60190E09A
S1130F500E94D6078110F5CF222009F43FCEB601B6
S1130F6080E290E00E94D6072A94F6CFF6018681AB
S1130F70978102C08FEF9FEF2B96E2E10C94CF088C
S1130F80FC010590615070400110D8F78095909550
S1130F908E0F9F1F0895FC01615070400190011055
S1130FA0D8F7809590958E0F9F1F08950F931F93E8
S1130FB0CF93DF93FB01238121FD03C08FEF9FEFCC
S1130FC02CC022FF16C046815781248135814217E7
S1130FD0530744F4A081B1819D012F5F3F4F3183BA
S1130FE020838C93268137812F5F3F4F378326835D
S1130FF014C08B01EC01FB010084F185E02D0995FF
S1131000892BE1F6D80116968D919C91179701963C
S113101017969C938E931697CE01DF91CF911F91D3
S11310200F910895FA01AA27283061F1203191F136
S1131030E8946F936E7F6E5F7F4F8F4F9F4FAF4FDC
S1131040B1E040D0B4E03ED0670F781F891F9A1FEB
S1131050A11D680F791F8A1F911DA11D6A0F711DA3
S1131060811D911DA11D22D009F468943F91062E83
S1131070000C3019000C000C3019305D3193CEF6A1
S1131080CF010895462F4770405D4193B3E00FD0E0
S1131090C9F7F6CF462F4F70405D4A3318F0495DCB
S11310A031FD4052419302D0A9F7EACFB4E0A695AE
S11310B09795879577956795BA95C9F700976105D0
S11310C0710508959B01AC010A2E06945795479526
S11310D037952795BA95C9F7620F731F841F951F1B
S11310E0A01D0895002480FD060E660F11F086955C
S11310F0D1F7802D0895EE27FF27AA27BB2708C024
S1131100A20FB31FE41FF51F220F331F441F551FE7
S1131110969587957795679598F37040A9F700970A
S113112099F7BD01CF010895052E97FB1EF4009495
S11311300E94AB0857FD07D00E945C0507FC03D052
S11311404EF40C94AB0850954095309521953F4F43
S11311504F4F5F4F089590958095709561957F4F9F
S11311608F4F9F4F08952F923F924F925F926F92AD
S11311707F928F929F92AF92BF92CF92DF92EF9223
S1131180FF920F931F93CF93DF93CDB7DEB7CA1BA4
S1131190DB0B0FB6F894DEBF0FBECDBF09942A88CF
S11311A0398848885F846E847D848C849B84AA8477
S11311B0B984C884DF80EE80FD800C811B81AA8104
S11311C0B981CE0FD11D0FB6F894DEBF0FBECDBFCF
S10B11D0ED010895F894FFCF2E
S11311D80100000080BB00000100B0000200D00044
S11311E80300EC0004000000FEFFFEFF05006000A1
S11311F80600600007006000080060000900600045
S11312080A0060000B0060000C0060000D00FF0085
S11312180E00FF000F000000100000001100000085
S1131228FEFFFEFF15000000160000001700000076
S9030000FC
